{
  "contractName": "NewPool",
  "abi": [
    {
      "inputs": [],
      "stateMutability": "nonpayable",
      "type": "constructor"
    },
    {
      "anonymous": false,
      "inputs": [
        {
          "indexed": true,
          "internalType": "address",
          "name": "borrower",
          "type": "address"
        },
        {
          "indexed": true,
          "internalType": "address",
          "name": "token",
          "type": "address"
        },
        {
          "indexed": false,
          "internalType": "uint256",
          "name": "amount",
          "type": "uint256"
        }
      ],
      "name": "Borrowed",
      "type": "event"
    },
    {
      "anonymous": false,
      "inputs": [
        {
          "indexed": true,
          "internalType": "address",
          "name": "depositor",
          "type": "address"
        },
        {
          "indexed": false,
          "internalType": "uint256",
          "name": "amount",
          "type": "uint256"
        }
      ],
      "name": "DepositedEth",
      "type": "event"
    },
    {
      "anonymous": false,
      "inputs": [
        {
          "indexed": true,
          "internalType": "address",
          "name": "depositor",
          "type": "address"
        },
        {
          "indexed": true,
          "internalType": "address",
          "name": "token",
          "type": "address"
        },
        {
          "indexed": false,
          "internalType": "uint256",
          "name": "amount",
          "type": "uint256"
        }
      ],
      "name": "DepositedToken",
      "type": "event"
    },
    {
      "anonymous": false,
      "inputs": [
        {
          "indexed": true,
          "internalType": "address",
          "name": "previousOwner",
          "type": "address"
        },
        {
          "indexed": true,
          "internalType": "address",
          "name": "newOwner",
          "type": "address"
        }
      ],
      "name": "OwnershipTransferred",
      "type": "event"
    },
    {
      "anonymous": false,
      "inputs": [
        {
          "indexed": true,
          "internalType": "address",
          "name": "borrower",
          "type": "address"
        },
        {
          "indexed": true,
          "internalType": "uint256",
          "name": "loanId",
          "type": "uint256"
        },
        {
          "indexed": false,
          "internalType": "uint256",
          "name": "amount",
          "type": "uint256"
        }
      ],
      "name": "Repaid",
      "type": "event"
    },
    {
      "anonymous": false,
      "inputs": [
        {
          "indexed": true,
          "internalType": "address",
          "name": "depositor",
          "type": "address"
        },
        {
          "indexed": false,
          "internalType": "uint256",
          "name": "amount",
          "type": "uint256"
        }
      ],
      "name": "WithdrawnEth",
      "type": "event"
    },
    {
      "anonymous": false,
      "inputs": [
        {
          "indexed": true,
          "internalType": "address",
          "name": "depositor",
          "type": "address"
        },
        {
          "indexed": true,
          "internalType": "address",
          "name": "token",
          "type": "address"
        },
        {
          "indexed": false,
          "internalType": "uint256",
          "name": "amount",
          "type": "uint256"
        }
      ],
      "name": "WithdrwanToken",
      "type": "event"
    },
    {
      "inputs": [],
      "name": "blockTime",
      "outputs": [
        {
          "internalType": "uint256",
          "name": "",
          "type": "uint256"
        }
      ],
      "stateMutability": "view",
      "type": "function"
    },
    {
      "inputs": [
        {
          "internalType": "address",
          "name": "",
          "type": "address"
        }
      ],
      "name": "ethBalance",
      "outputs": [
        {
          "internalType": "uint256",
          "name": "",
          "type": "uint256"
        }
      ],
      "stateMutability": "view",
      "type": "function"
    },
    {
      "inputs": [],
      "name": "owner",
      "outputs": [
        {
          "internalType": "address",
          "name": "",
          "type": "address"
        }
      ],
      "stateMutability": "view",
      "type": "function"
    },
    {
      "inputs": [],
      "name": "rakToken",
      "outputs": [
        {
          "internalType": "contract RakToken",
          "name": "",
          "type": "address"
        }
      ],
      "stateMutability": "view",
      "type": "function"
    },
    {
      "inputs": [],
      "name": "renounceOwnership",
      "outputs": [],
      "stateMutability": "nonpayable",
      "type": "function"
    },
    {
      "inputs": [],
      "name": "tokenCount",
      "outputs": [
        {
          "internalType": "uint256",
          "name": "",
          "type": "uint256"
        }
      ],
      "stateMutability": "view",
      "type": "function"
    },
    {
      "inputs": [
        {
          "internalType": "address",
          "name": "",
          "type": "address"
        }
      ],
      "name": "tokenInterestInfo",
      "outputs": [
        {
          "internalType": "uint256",
          "name": "depositInterest",
          "type": "uint256"
        },
        {
          "internalType": "uint256",
          "name": "borrowInterest",
          "type": "uint256"
        }
      ],
      "stateMutability": "view",
      "type": "function"
    },
    {
      "inputs": [
        {
          "internalType": "uint256",
          "name": "",
          "type": "uint256"
        }
      ],
      "name": "tokens",
      "outputs": [
        {
          "internalType": "address",
          "name": "",
          "type": "address"
        }
      ],
      "stateMutability": "view",
      "type": "function"
    },
    {
      "inputs": [
        {
          "internalType": "address",
          "name": "",
          "type": "address"
        }
      ],
      "name": "totalTokenAvailable",
      "outputs": [
        {
          "internalType": "uint256",
          "name": "",
          "type": "uint256"
        }
      ],
      "stateMutability": "view",
      "type": "function"
    },
    {
      "inputs": [
        {
          "internalType": "address",
          "name": "",
          "type": "address"
        }
      ],
      "name": "totalTokenBorrowed",
      "outputs": [
        {
          "internalType": "uint256",
          "name": "",
          "type": "uint256"
        }
      ],
      "stateMutability": "view",
      "type": "function"
    },
    {
      "inputs": [
        {
          "internalType": "address",
          "name": "newOwner",
          "type": "address"
        }
      ],
      "name": "transferOwnership",
      "outputs": [],
      "stateMutability": "nonpayable",
      "type": "function"
    },
    {
      "inputs": [
        {
          "internalType": "address",
          "name": "",
          "type": "address"
        }
      ],
      "name": "userLoanCount",
      "outputs": [
        {
          "internalType": "uint256",
          "name": "",
          "type": "uint256"
        }
      ],
      "stateMutability": "view",
      "type": "function"
    },
    {
      "inputs": [
        {
          "internalType": "address",
          "name": "",
          "type": "address"
        },
        {
          "internalType": "uint256",
          "name": "",
          "type": "uint256"
        }
      ],
      "name": "userLoanData",
      "outputs": [
        {
          "internalType": "uint256",
          "name": "loanId",
          "type": "uint256"
        },
        {
          "internalType": "uint256",
          "name": "totalLoanedAmount",
          "type": "uint256"
        },
        {
          "internalType": "uint256",
          "name": "totalRepayAmount",
          "type": "uint256"
        },
        {
          "internalType": "address",
          "name": "tokenAddress",
          "type": "address"
        },
        {
          "internalType": "address",
          "name": "colateralAddress",
          "type": "address"
        },
        {
          "internalType": "uint256",
          "name": "blockNumber",
          "type": "uint256"
        },
        {
          "internalType": "enum NewPool.Status",
          "name": "status",
          "type": "uint8"
        }
      ],
      "stateMutability": "view",
      "type": "function"
    },
    {
      "inputs": [
        {
          "internalType": "address",
          "name": "",
          "type": "address"
        },
        {
          "internalType": "address",
          "name": "",
          "type": "address"
        }
      ],
      "name": "userTokenBal",
      "outputs": [
        {
          "internalType": "uint256",
          "name": "amount",
          "type": "uint256"
        },
        {
          "internalType": "uint256",
          "name": "blockNumber",
          "type": "uint256"
        },
        {
          "internalType": "uint256",
          "name": "totalInterestEarned",
          "type": "uint256"
        }
      ],
      "stateMutability": "view",
      "type": "function"
    },
    {
      "inputs": [
        {
          "internalType": "address",
          "name": "",
          "type": "address"
        },
        {
          "internalType": "address",
          "name": "",
          "type": "address"
        }
      ],
      "name": "userTokenLockedBal",
      "outputs": [
        {
          "internalType": "uint256",
          "name": "",
          "type": "uint256"
        }
      ],
      "stateMutability": "view",
      "type": "function"
    },
    {
      "stateMutability": "payable",
      "type": "receive"
    },
    {
      "inputs": [
        {
          "internalType": "address",
          "name": "tokenAddress",
          "type": "address"
        }
      ],
      "name": "registerToken",
      "outputs": [],
      "stateMutability": "nonpayable",
      "type": "function"
    },
    {
      "inputs": [
        {
          "internalType": "address",
          "name": "tokenAddress",
          "type": "address"
        }
      ],
      "name": "checkInterestInfo",
      "outputs": [
        {
          "internalType": "uint256",
          "name": "",
          "type": "uint256"
        }
      ],
      "stateMutability": "view",
      "type": "function"
    },
    {
      "inputs": [
        {
          "internalType": "address",
          "name": "tokenAddress",
          "type": "address"
        }
      ],
      "name": "getDepositInterestRate",
      "outputs": [
        {
          "internalType": "uint256",
          "name": "",
          "type": "uint256"
        }
      ],
      "stateMutability": "nonpayable",
      "type": "function"
    },
    {
      "inputs": [
        {
          "internalType": "address",
          "name": "tokenAddress",
          "type": "address"
        }
      ],
      "name": "getBorrowerInterestRate",
      "outputs": [
        {
          "internalType": "uint256",
          "name": "",
          "type": "uint256"
        }
      ],
      "stateMutability": "nonpayable",
      "type": "function"
    },
    {
      "inputs": [
        {
          "internalType": "address",
          "name": "tokenAddress",
          "type": "address"
        }
      ],
      "name": "calculateDepositorInterest",
      "outputs": [],
      "stateMutability": "nonpayable",
      "type": "function"
    },
    {
      "inputs": [
        {
          "internalType": "uint256",
          "name": "loanId",
          "type": "uint256"
        },
        {
          "internalType": "address",
          "name": "tokenAddress",
          "type": "address"
        }
      ],
      "name": "calculateLoanInterest",
      "outputs": [],
      "stateMutability": "nonpayable",
      "type": "function"
    },
    {
      "inputs": [],
      "name": "getLatestPrice",
      "outputs": [
        {
          "internalType": "uint80",
          "name": "",
          "type": "uint80"
        },
        {
          "internalType": "int256",
          "name": "",
          "type": "int256"
        },
        {
          "internalType": "uint256",
          "name": "",
          "type": "uint256"
        },
        {
          "internalType": "uint256",
          "name": "",
          "type": "uint256"
        },
        {
          "internalType": "uint80",
          "name": "",
          "type": "uint80"
        }
      ],
      "stateMutability": "view",
      "type": "function"
    },
    {
      "inputs": [],
      "name": "depositEth",
      "outputs": [
        {
          "internalType": "bool",
          "name": "success",
          "type": "bool"
        }
      ],
      "stateMutability": "payable",
      "type": "function"
    },
    {
      "inputs": [
        {
          "internalType": "address",
          "name": "tokenAddress",
          "type": "address"
        },
        {
          "internalType": "uint256",
          "name": "amount",
          "type": "uint256"
        }
      ],
      "name": "depositToken",
      "outputs": [
        {
          "internalType": "bool",
          "name": "success",
          "type": "bool"
        }
      ],
      "stateMutability": "nonpayable",
      "type": "function"
    },
    {
      "inputs": [
        {
          "internalType": "uint256",
          "name": "amount",
          "type": "uint256"
        }
      ],
      "name": "withdrawEth",
      "outputs": [
        {
          "internalType": "bool",
          "name": "success",
          "type": "bool"
        }
      ],
      "stateMutability": "payable",
      "type": "function"
    },
    {
      "inputs": [
        {
          "internalType": "uint256",
          "name": "amount",
          "type": "uint256"
        },
        {
          "internalType": "address",
          "name": "tokenAddress",
          "type": "address"
        }
      ],
      "name": "withdrawToken",
      "outputs": [
        {
          "internalType": "bool",
          "name": "success",
          "type": "bool"
        }
      ],
      "stateMutability": "payable",
      "type": "function"
    },
    {
      "inputs": [
        {
          "internalType": "uint256",
          "name": "amount",
          "type": "uint256"
        },
        {
          "internalType": "address",
          "name": "tokenAddress",
          "type": "address"
        },
        {
          "internalType": "address",
          "name": "colateralAddress",
          "type": "address"
        }
      ],
      "name": "borrow",
      "outputs": [
        {
          "internalType": "bool",
          "name": "success",
          "type": "bool"
        }
      ],
      "stateMutability": "nonpayable",
      "type": "function"
    },
    {
      "inputs": [
        {
          "internalType": "uint256",
          "name": "amount",
          "type": "uint256"
        },
        {
          "internalType": "uint256",
          "name": "loanId",
          "type": "uint256"
        }
      ],
      "name": "repay",
      "outputs": [
        {
          "internalType": "bool",
          "name": "",
          "type": "bool"
        }
      ],
      "stateMutability": "nonpayable",
      "type": "function"
    }
  ],
  "bytecode": "0x60806040523480156200001157600080fd5b5062000032620000266200021860201b60201c565b6200022060201b60201c565b738a753747a1fa494ec906ce90e9f37563a8af630e600c60006101000a81548173ffffffffffffffffffffffffffffffffffffffff021916908373ffffffffffffffffffffffffffffffffffffffff160217905550600e600b819055506305f5e100604051620000a290620002e4565b620000ae919062000349565b604051809103906000f080158015620000cb573d6000803e3d6000fd5b50600d60006101000a81548173ffffffffffffffffffffffffffffffffffffffff021916908373ffffffffffffffffffffffffffffffffffffffff160217905550600d60009054906101000a900473ffffffffffffffffffffffffffffffffffffffff1673ffffffffffffffffffffffffffffffffffffffff166370a08231306040518263ffffffff1660e01b8152600401620001699190620003ab565b602060405180830381865afa15801562000187573d6000803e3d6000fd5b505050506040513d601f19601f82011682018060405250810190620001ad9190620003fe565b60026000600d60009054906101000a900473ffffffffffffffffffffffffffffffffffffffff1673ffffffffffffffffffffffffffffffffffffffff1673ffffffffffffffffffffffffffffffffffffffff1681526020019081526020016000208190555062000430565b600033905090565b60008060009054906101000a900473ffffffffffffffffffffffffffffffffffffffff169050816000806101000a81548173ffffffffffffffffffffffffffffffffffffffff021916908373ffffffffffffffffffffffffffffffffffffffff1602179055508173ffffffffffffffffffffffffffffffffffffffff168173ffffffffffffffffffffffffffffffffffffffff167f8be0079c531659141344cd1fd0a4f28419497f9722a3daafe3b4186f6b6457e060405160405180910390a35050565b612180806200463683390190565b6000819050919050565b6000819050919050565b6000819050919050565b6000620003316200032b6200032584620002f2565b62000306565b620002fc565b9050919050565b620003438162000310565b82525050565b600060208201905062000360600083018462000338565b92915050565b600073ffffffffffffffffffffffffffffffffffffffff82169050919050565b6000620003938262000366565b9050919050565b620003a58162000386565b82525050565b6000602082019050620003c260008301846200039a565b92915050565b600080fd5b620003d881620002fc565b8114620003e457600080fd5b50565b600081519050620003f881620003cd565b92915050565b600060208284031215620004175762000416620003c8565b5b60006200042784828501620003e7565b91505092915050565b6141f680620004406000396000f3fe6080604052600436106101bb5760003560e01c80638e15f473116100ec578063c311d0491161008a578063d8aed14511610064578063d8aed1451461069f578063d8f3790f146106dc578063e497f12714610719578063f2fde38b14610757576101cb565b8063c311d04914610607578063d516418414610637578063d857d23914610674576101cb565b8063a3d9f485116100c6578063a3d9f48514610534578063af85e1d514610571578063ba438155146105ae578063be4b1772146105d7576101cb565b80638e15f4731461049d57806397cbac41146104cc5780639f181b5e14610509576101cb565b80634c3ee44a11610159578063715018a611610133578063715018a6146103db5780637960b809146103f25780637bf6af5d1461042f5780638da5cb5b14610472576101cb565b80634c3ee44a146103225780634f64b2be1461035f5780636ecd166a1461039c576101cb565b806318020a5d1161019557806318020a5d14610273578063338b5dea1461029c578063439370b1146102d957806348b15166146102f7576101cb565b80630558e382146101d057806309824a801461020d5780631705ee7414610236576101cb565b366101cb576101c8610780565b50005b600080fd5b3480156101dc57600080fd5b506101f760048036038101906101f29190613669565b610aab565b60405161020491906136af565b60405180910390f35b34801561021957600080fd5b50610234600480360381019061022f9190613669565b610b7b565b005b34801561024257600080fd5b5061025d60048036038101906102589190613669565b610c6a565b60405161026a91906136af565b60405180910390f35b34801561027f57600080fd5b5061029a600480360381019061029591906136f6565b610c82565b005b3480156102a857600080fd5b506102c360048036038101906102be9190613736565b610ffa565b6040516102d09190613791565b60405180910390f35b6102e1610780565b6040516102ee9190613791565b60405180910390f35b34801561030357600080fd5b5061030c6112e7565b60405161031991906136af565b60405180910390f35b34801561032e57600080fd5b5061034960048036038101906103449190613669565b6112ed565b60405161035691906136af565b60405180910390f35b34801561036b57600080fd5b50610386600480360381019061038191906137ac565b611376565b60405161039391906137e8565b60405180910390f35b3480156103a857600080fd5b506103c360048036038101906103be9190613803565b6113a9565b6040516103d293929190613843565b60405180910390f35b3480156103e757600080fd5b506103f06113e0565b005b3480156103fe57600080fd5b5061041960048036038101906104149190613669565b611468565b60405161042691906136af565b60405180910390f35b34801561043b57600080fd5b5061045660048036038101906104519190613736565b6114f1565b60405161046997969594939291906138f1565b60405180910390f35b34801561047e57600080fd5b5061048761159d565b60405161049491906137e8565b60405180910390f35b3480156104a957600080fd5b506104b26115c6565b6040516104c395949392919061399e565b60405180910390f35b3480156104d857600080fd5b506104f360048036038101906104ee9190613803565b61169d565b60405161050091906136af565b60405180910390f35b34801561051557600080fd5b5061051e6116c2565b60405161052b91906136af565b60405180910390f35b34801561054057600080fd5b5061055b60048036038101906105569190613669565b6116c8565b60405161056891906136af565b60405180910390f35b34801561057d57600080fd5b5061059860048036038101906105939190613669565b6116e0565b6040516105a591906136af565b60405180910390f35b3480156105ba57600080fd5b506105d560048036038101906105d09190613669565b6116f8565b005b6105f160048036038101906105ec91906136f6565b611b5a565b6040516105fe9190613791565b60405180910390f35b610621600480360381019061061c91906137ac565b61201d565b60405161062e9190613791565b60405180910390f35b34801561064357600080fd5b5061065e600480360381019061065991906139f1565b612484565b60405161066b9190613791565b60405180910390f35b34801561068057600080fd5b50610689612b25565b6040516106969190613aa3565b60405180910390f35b3480156106ab57600080fd5b506106c660048036038101906106c19190613abe565b612b4b565b6040516106d39190613791565b60405180910390f35b3480156106e857600080fd5b5061070360048036038101906106fe9190613669565b6133ae565b60405161071091906136af565b60405180910390f35b34801561072557600080fd5b50610740600480360381019061073b9190613669565b6133c6565b60405161074e929190613afe565b60405180910390f35b34801561076357600080fd5b5061077e60048036038101906107799190613669565b6133ea565b005b6000806109c490506000600d60009054906101000a900473ffffffffffffffffffffffffffffffffffffffff16905061080134600760003373ffffffffffffffffffffffffffffffffffffffff1673ffffffffffffffffffffffffffffffffffffffff168152602001908152602001600020546134e290919063ffffffff16565b600760003373ffffffffffffffffffffffffffffffffffffffff1673ffffffffffffffffffffffffffffffffffffffff16815260200190815260200160002081905550600061085934846134f890919063ffffffff16565b90506000600190506000604051806060016040528084815260200143815260200183815250905080600160003373ffffffffffffffffffffffffffffffffffffffff1673ffffffffffffffffffffffffffffffffffffffff16815260200190815260200160002060008673ffffffffffffffffffffffffffffffffffffffff1673ffffffffffffffffffffffffffffffffffffffff16815260200190815260200160002060008201518160000155602082015181600101556040820151816002015590505061097083600260008773ffffffffffffffffffffffffffffffffffffffff1673ffffffffffffffffffffffffffffffffffffffff168152602001908152602001600020546134e290919063ffffffff16565b600260008673ffffffffffffffffffffffffffffffffffffffff1673ffffffffffffffffffffffffffffffffffffffff168152602001908152602001600020819055503373ffffffffffffffffffffffffffffffffffffffff167f0931b9170c72d22398c29d23820b7b4ff5dd64286656614f06a8ed6ec9a5df9c346040516109f991906136af565b60405180910390a2600d60009054906101000a900473ffffffffffffffffffffffffffffffffffffffff1673ffffffffffffffffffffffffffffffffffffffff1663a9059cbb33856040518363ffffffff1660e01b8152600401610a5e929190613b27565b6020604051808303816000875af1158015610a7d573d6000803e3d6000fd5b505050506040513d601f19601f82011682018060405250810190610aa19190613b7c565b9550505050505090565b600080600260008473ffffffffffffffffffffffffffffffffffffffff1673ffffffffffffffffffffffffffffffffffffffff1681526020019081526020016000205490506000600360008573ffffffffffffffffffffffffffffffffffffffff1673ffffffffffffffffffffffffffffffffffffffff1681526020019081526020016000205490506000610b6e610b4c83856134e290919063ffffffff16565b610b606064856134f890919063ffffffff16565b61350e90919063ffffffff16565b9050809350505050919050565b610b83613524565b73ffffffffffffffffffffffffffffffffffffffff16610ba161159d565b73ffffffffffffffffffffffffffffffffffffffff1614610bf7576040517f08c379a0000000000000000000000000000000000000000000000000000000008152600401610bee90613c06565b60405180910390fd5b610c0d6001600a546134e290919063ffffffff16565b600a819055508060086000600a54815260200190815260200160002060006101000a81548173ffffffffffffffffffffffffffffffffffffffff021916908373ffffffffffffffffffffffffffffffffffffffff16021790555050565b60026020528060005260406000206000915090505481565b6000610d19600b54610d0b600960003373ffffffffffffffffffffffffffffffffffffffff1673ffffffffffffffffffffffffffffffffffffffff168152602001908152602001600020600187610cd99190613c55565b81548110610cea57610ce9613c89565b5b9060005260206000209060070201600501544361352c90919063ffffffff16565b6134f890919063ffffffff16565b90506000610d486064610d3a62015180618ead6134f890919063ffffffff16565b61350e90919063ffffffff16565b90506000600960003373ffffffffffffffffffffffffffffffffffffffff1673ffffffffffffffffffffffffffffffffffffffff168152602001908152602001600020600186610d989190613c55565b81548110610da957610da8613c89565b5b906000526020600020906007020160020154600960003373ffffffffffffffffffffffffffffffffffffffff1673ffffffffffffffffffffffffffffffffffffffff168152602001908152602001600020600187610e079190613c55565b81548110610e1857610e17613c89565b5b906000526020600020906007020160010154610e349190613c55565b90506000610e8a83610e7c6064610e6e610e4d8a611468565b610e608a896134f890919063ffffffff16565b6134f890919063ffffffff16565b61350e90919063ffffffff16565b61350e90919063ffffffff16565b9050610f0d81600960003373ffffffffffffffffffffffffffffffffffffffff1673ffffffffffffffffffffffffffffffffffffffff168152602001908152602001600020600189610edc9190613c55565b81548110610eed57610eec613c89565b5b9060005260206000209060070201600101546134e290919063ffffffff16565b600960003373ffffffffffffffffffffffffffffffffffffffff1673ffffffffffffffffffffffffffffffffffffffff168152602001908152602001600020600188610f599190613c55565b81548110610f6a57610f69613c89565b5b90600052602060002090600702016001018190555043600960003373ffffffffffffffffffffffffffffffffffffffff1673ffffffffffffffffffffffffffffffffffffffff168152602001908152602001600020600188610fcc9190613c55565b81548110610fdd57610fdc613c89565b5b906000526020600020906007020160050181905550505050505050565b60008061108f83600160003373ffffffffffffffffffffffffffffffffffffffff1673ffffffffffffffffffffffffffffffffffffffff16815260200190815260200160002060008773ffffffffffffffffffffffffffffffffffffffff1673ffffffffffffffffffffffffffffffffffffffff168152602001908152602001600020600001546134e290919063ffffffff16565b90506110e383600260008773ffffffffffffffffffffffffffffffffffffffff1673ffffffffffffffffffffffffffffffffffffffff168152602001908152602001600020546134e290919063ffffffff16565b600260008673ffffffffffffffffffffffffffffffffffffffff1673ffffffffffffffffffffffffffffffffffffffff1681526020019081526020016000208190555061112f846112ed565b5061113984611468565b50600060405180606001604052808381526020014381526020016000815250905080600160003373ffffffffffffffffffffffffffffffffffffffff1673ffffffffffffffffffffffffffffffffffffffff16815260200190815260200160002060008773ffffffffffffffffffffffffffffffffffffffff1673ffffffffffffffffffffffffffffffffffffffff1681526020019081526020016000206000820151816000015560208201518160010155604082015181600201559050508473ffffffffffffffffffffffffffffffffffffffff163373ffffffffffffffffffffffffffffffffffffffff167f7a43fc511e5571803e978d5d53bbfb35b899d0c8acdc2039769bfbc77082fa338660405161125591906136af565b60405180910390a38473ffffffffffffffffffffffffffffffffffffffff166323b872dd3330876040518463ffffffff1660e01b815260040161129a93929190613cb8565b6020604051808303816000875af11580156112b9573d6000803e3d6000fd5b505050506040513d601f19601f820116820180604052508101906112dd9190613b7c565b9250505092915050565b600b5481565b6000806109c490506000611325611316600261130887610aab565b6134f890919063ffffffff16565b836134e290919063ffffffff16565b905080600660008673ffffffffffffffffffffffffffffffffffffffff1673ffffffffffffffffffffffffffffffffffffffff16815260200190815260200160002060000181905592505050919050565b60086020528060005260406000206000915054906101000a900473ffffffffffffffffffffffffffffffffffffffff1681565b6001602052816000526040600020602052806000526040600020600091509150508060000154908060010154908060020154905083565b6113e8613524565b73ffffffffffffffffffffffffffffffffffffffff1661140661159d565b73ffffffffffffffffffffffffffffffffffffffff161461145c576040517f08c379a000000000000000000000000000000000000000000000000000000000815260040161145390613c06565b60405180910390fd5b6114666000613542565b565b600080610bb8905060006114a0611491600261148387610aab565b6134f890919063ffffffff16565b836134e290919063ffffffff16565b905080600660008673ffffffffffffffffffffffffffffffffffffffff1673ffffffffffffffffffffffffffffffffffffffff16815260200190815260200160002060010181905592505050919050565b6009602052816000526040600020818154811061150d57600080fd5b9060005260206000209060070201600091509150508060000154908060010154908060020154908060030160009054906101000a900473ffffffffffffffffffffffffffffffffffffffff16908060040160009054906101000a900473ffffffffffffffffffffffffffffffffffffffff16908060050154908060060160009054906101000a900460ff16905087565b60008060009054906101000a900473ffffffffffffffffffffffffffffffffffffffff16905090565b600080600080600080600080600080600c60009054906101000a900473ffffffffffffffffffffffffffffffffffffffff1673ffffffffffffffffffffffffffffffffffffffff1663feaf968c6040518163ffffffff1660e01b815260040160a060405180830381865afa158015611642573d6000803e3d6000fd5b505050506040513d601f19601f820116820180604052508101906116669190613d5c565b945094509450945094506305f5e100846116809190613e06565b935084848484849950995099509950995050505050509091929394565b6004602052816000526040600020602052806000526040600020600091509150505481565b600a5481565b60036020528060005260406000206000915090505481565b60056020528060005260406000206000915090505481565b60006117a0600b54611792600160003373ffffffffffffffffffffffffffffffffffffffff1673ffffffffffffffffffffffffffffffffffffffff16815260200190815260200160002060008673ffffffffffffffffffffffffffffffffffffffff1673ffffffffffffffffffffffffffffffffffffffff168152602001908152602001600020600101544361352c90919063ffffffff16565b6134f890919063ffffffff16565b905060006117cf60646117c162015180618ead6134f890919063ffffffff16565b61350e90919063ffffffff16565b905060006118a48261189660646118886117e8896112ed565b61187a89600160003373ffffffffffffffffffffffffffffffffffffffff1673ffffffffffffffffffffffffffffffffffffffff16815260200190815260200160002060008d73ffffffffffffffffffffffffffffffffffffffff1673ffffffffffffffffffffffffffffffffffffffff168152602001908152602001600020600001546134f890919063ffffffff16565b6134f890919063ffffffff16565b61350e90919063ffffffff16565b61350e90919063ffffffff16565b905061193881600160003373ffffffffffffffffffffffffffffffffffffffff1673ffffffffffffffffffffffffffffffffffffffff16815260200190815260200160002060008773ffffffffffffffffffffffffffffffffffffffff1673ffffffffffffffffffffffffffffffffffffffff168152602001908152602001600020600001546134e290919063ffffffff16565b600160003373ffffffffffffffffffffffffffffffffffffffff1673ffffffffffffffffffffffffffffffffffffffff16815260200190815260200160002060008673ffffffffffffffffffffffffffffffffffffffff1673ffffffffffffffffffffffffffffffffffffffff16815260200190815260200160002060000181905550611a4d81600160003373ffffffffffffffffffffffffffffffffffffffff1673ffffffffffffffffffffffffffffffffffffffff16815260200190815260200160002060008773ffffffffffffffffffffffffffffffffffffffff1673ffffffffffffffffffffffffffffffffffffffff168152602001908152602001600020600201546134e290919063ffffffff16565b600160003373ffffffffffffffffffffffffffffffffffffffff1673ffffffffffffffffffffffffffffffffffffffff16815260200190815260200160002060008673ffffffffffffffffffffffffffffffffffffffff1673ffffffffffffffffffffffffffffffffffffffff1681526020019081526020016000206002018190555043600160003373ffffffffffffffffffffffffffffffffffffffff1673ffffffffffffffffffffffffffffffffffffffff16815260200190815260200160002060008673ffffffffffffffffffffffffffffffffffffffff1673ffffffffffffffffffffffffffffffffffffffff1681526020019081526020016000206001018190555050505050565b600082600160003373ffffffffffffffffffffffffffffffffffffffff1673ffffffffffffffffffffffffffffffffffffffff16815260200190815260200160002060008473ffffffffffffffffffffffffffffffffffffffff1673ffffffffffffffffffffffffffffffffffffffff168152602001908152602001600020600001541015611c1e576040517f08c379a0000000000000000000000000000000000000000000000000000000008152600401611c1590613ebc565b60405180910390fd5b6000611d2e600460003373ffffffffffffffffffffffffffffffffffffffff1673ffffffffffffffffffffffffffffffffffffffff16815260200190815260200160002060008573ffffffffffffffffffffffffffffffffffffffff1673ffffffffffffffffffffffffffffffffffffffff16815260200190815260200160002054600160003373ffffffffffffffffffffffffffffffffffffffff1673ffffffffffffffffffffffffffffffffffffffff16815260200190815260200160002060008673ffffffffffffffffffffffffffffffffffffffff1673ffffffffffffffffffffffffffffffffffffffff1681526020019081526020016000206000015461352c90919063ffffffff16565b905083811015611d73576040517f08c379a0000000000000000000000000000000000000000000000000000000008152600401611d6a90613f28565b60405180910390fd5b611d7c836112ed565b50611d8683611468565b50611e1984600160003373ffffffffffffffffffffffffffffffffffffffff1673ffffffffffffffffffffffffffffffffffffffff16815260200190815260200160002060008673ffffffffffffffffffffffffffffffffffffffff1673ffffffffffffffffffffffffffffffffffffffff1681526020019081526020016000206000015461352c90919063ffffffff16565b600160003373ffffffffffffffffffffffffffffffffffffffff1673ffffffffffffffffffffffffffffffffffffffff16815260200190815260200160002060008573ffffffffffffffffffffffffffffffffffffffff1673ffffffffffffffffffffffffffffffffffffffff16815260200190815260200160002060000181905550611eee84600260008673ffffffffffffffffffffffffffffffffffffffff1673ffffffffffffffffffffffffffffffffffffffff1681526020019081526020016000205461352c90919063ffffffff16565b600260008573ffffffffffffffffffffffffffffffffffffffff1673ffffffffffffffffffffffffffffffffffffffff168152602001908152602001600020819055508273ffffffffffffffffffffffffffffffffffffffff163373ffffffffffffffffffffffffffffffffffffffff167f1e0ddb8031eae82d75274206bedda7afe42624e6340d98b5ecbebcd193bf928386604051611f8e91906136af565b60405180910390a38273ffffffffffffffffffffffffffffffffffffffff1663a9059cbb33866040518363ffffffff1660e01b8152600401611fd1929190613b27565b6020604051808303816000875af1158015611ff0573d6000803e3d6000fd5b505050506040513d601f19601f820116820180604052508101906120149190613b7c565b91505092915050565b6000806109c490506000600d60009054906101000a900473ffffffffffffffffffffffffffffffffffffffff1673ffffffffffffffffffffffffffffffffffffffff166370a08231336040518263ffffffff1660e01b815260040161208291906137e8565b602060405180830381865afa15801561209f573d6000803e3d6000fd5b505050506040513d601f19601f820116820180604052508101906120c39190613f48565b90506000612178600460003373ffffffffffffffffffffffffffffffffffffffff1673ffffffffffffffffffffffffffffffffffffffff1681526020019081526020016000206000600d60009054906101000a900473ffffffffffffffffffffffffffffffffffffffff1673ffffffffffffffffffffffffffffffffffffffff1673ffffffffffffffffffffffffffffffffffffffff168152602001908152602001600020548361352c90919063ffffffff16565b9050848110156121bd576040517f08c379a00000000000000000000000000000000000000000000000000000000081526004016121b490613f28565b60405180910390fd5b60006121d286856134f890919063ffffffff16565b905061222686600760003373ffffffffffffffffffffffffffffffffffffffff1673ffffffffffffffffffffffffffffffffffffffff1681526020019081526020016000205461352c90919063ffffffff16565b600760003373ffffffffffffffffffffffffffffffffffffffff1673ffffffffffffffffffffffffffffffffffffffff168152602001908152602001600020819055506122dd8160026000600d60009054906101000a900473ffffffffffffffffffffffffffffffffffffffff1673ffffffffffffffffffffffffffffffffffffffff1673ffffffffffffffffffffffffffffffffffffffff1681526020019081526020016000205461352c90919063ffffffff16565b60026000600d60009054906101000a900473ffffffffffffffffffffffffffffffffffffffff1673ffffffffffffffffffffffffffffffffffffffff1673ffffffffffffffffffffffffffffffffffffffff168152602001908152602001600020819055503373ffffffffffffffffffffffffffffffffffffffff167fa8841823f7591414a80deddb48af504373043ab5959ceddf527c2215d62cb29b8760405161238891906136af565b60405180910390a23373ffffffffffffffffffffffffffffffffffffffff166108fc879081150290604051600060405180830381858888f193505050501580156123d6573d6000803e3d6000fd5b50600d60009054906101000a900473ffffffffffffffffffffffffffffffffffffffff1673ffffffffffffffffffffffffffffffffffffffff166323b872dd3330846040518463ffffffff1660e01b815260040161243693929190613cb8565b6020604051808303816000875af1158015612455573d6000803e3d6000fd5b505050506040513d601f19601f820116820180604052508101906124799190613b7c565b945050505050919050565b600083600160003373ffffffffffffffffffffffffffffffffffffffff1673ffffffffffffffffffffffffffffffffffffffff16815260200190815260200160002060008473ffffffffffffffffffffffffffffffffffffffff1673ffffffffffffffffffffffffffffffffffffffff168152602001908152602001600020600001541015612548576040517f08c379a000000000000000000000000000000000000000000000000000000000815260040161253f90613fc1565b60405180910390fd5b6125d784600460003373ffffffffffffffffffffffffffffffffffffffff1673ffffffffffffffffffffffffffffffffffffffff16815260200190815260200160002060008573ffffffffffffffffffffffffffffffffffffffff1673ffffffffffffffffffffffffffffffffffffffff168152602001908152602001600020546134e290919063ffffffff16565b600460003373ffffffffffffffffffffffffffffffffffffffff1673ffffffffffffffffffffffffffffffffffffffff16815260200190815260200160002060008473ffffffffffffffffffffffffffffffffffffffff1673ffffffffffffffffffffffffffffffffffffffff168152602001908152602001600020819055506126aa6001600560003373ffffffffffffffffffffffffffffffffffffffff1673ffffffffffffffffffffffffffffffffffffffff168152602001908152602001600020546134e290919063ffffffff16565b600560003373ffffffffffffffffffffffffffffffffffffffff1673ffffffffffffffffffffffffffffffffffffffff168152602001908152602001600020819055506000600560003373ffffffffffffffffffffffffffffffffffffffff1673ffffffffffffffffffffffffffffffffffffffff16815260200190815260200160002054905060006040518060e00160405280838152602001878152602001600081526020018673ffffffffffffffffffffffffffffffffffffffff1681526020018573ffffffffffffffffffffffffffffffffffffffff168152602001438152602001600060028111156127a3576127a261387a565b5b81525090506127b1856112ed565b506127bb85611468565b50600960003373ffffffffffffffffffffffffffffffffffffffff1673ffffffffffffffffffffffffffffffffffffffff16815260200190815260200160002081908060018154018082558091505060019003906000526020600020906007020160009091909190915060008201518160000155602082015181600101556040820151816002015560608201518160030160006101000a81548173ffffffffffffffffffffffffffffffffffffffff021916908373ffffffffffffffffffffffffffffffffffffffff16021790555060808201518160040160006101000a81548173ffffffffffffffffffffffffffffffffffffffff021916908373ffffffffffffffffffffffffffffffffffffffff16021790555060a0820151816005015560c08201518160060160006101000a81548160ff021916908360028111156129065761290561387a565b5b0217905550505061295f86600360008873ffffffffffffffffffffffffffffffffffffffff1673ffffffffffffffffffffffffffffffffffffffff168152602001908152602001600020546134e290919063ffffffff16565b600360008773ffffffffffffffffffffffffffffffffffffffff1673ffffffffffffffffffffffffffffffffffffffff168152602001908152602001600020819055506129f486600260008873ffffffffffffffffffffffffffffffffffffffff1673ffffffffffffffffffffffffffffffffffffffff1681526020019081526020016000205461352c90919063ffffffff16565b600260008773ffffffffffffffffffffffffffffffffffffffff1673ffffffffffffffffffffffffffffffffffffffff168152602001908152602001600020819055508473ffffffffffffffffffffffffffffffffffffffff163373ffffffffffffffffffffffffffffffffffffffff167f3fc499aeb0bb1cb58b6de8b02b3f86f4e7394e9690bef0110e32ced8a563104588604051612a9491906136af565b60405180910390a38473ffffffffffffffffffffffffffffffffffffffff1663a9059cbb33886040518363ffffffff1660e01b8152600401612ad7929190613b27565b6020604051808303816000875af1158015612af6573d6000803e3d6000fd5b505050506040513d601f19601f82011682018060405250810190612b1a9190613b7c565b925050509392505050565b600d60009054906101000a900473ffffffffffffffffffffffffffffffffffffffff1681565b600080600960003373ffffffffffffffffffffffffffffffffffffffff1673ffffffffffffffffffffffffffffffffffffffff168152602001908152602001600020600184612b9a9190613c55565b81548110612bab57612baa613c89565b5b906000526020600020906007020160040160009054906101000a900473ffffffffffffffffffffffffffffffffffffffff169050600960003373ffffffffffffffffffffffffffffffffffffffff1673ffffffffffffffffffffffffffffffffffffffff168152602001908152602001600020600184612c2b9190613c55565b81548110612c3c57612c3b613c89565b5b906000526020600020906007020160020154600960003373ffffffffffffffffffffffffffffffffffffffff1673ffffffffffffffffffffffffffffffffffffffff168152602001908152602001600020600185612c9a9190613c55565b81548110612cab57612caa613c89565b5b9060005260206000209060070201600101541415612cfe576040517f08c379a0000000000000000000000000000000000000000000000000000000008152600401612cf59061402d565b60405180910390fd5b612d7f84600960003373ffffffffffffffffffffffffffffffffffffffff1673ffffffffffffffffffffffffffffffffffffffff168152602001908152602001600020600186612d4e9190613c55565b81548110612d5f57612d5e613c89565b5b9060005260206000209060070201600201546134e290919063ffffffff16565b600960003373ffffffffffffffffffffffffffffffffffffffff1673ffffffffffffffffffffffffffffffffffffffff168152602001908152602001600020600185612dcb9190613c55565b81548110612ddc57612ddb613c89565b5b906000526020600020906007020160020181905550612e8084600460003373ffffffffffffffffffffffffffffffffffffffff1673ffffffffffffffffffffffffffffffffffffffff16815260200190815260200160002060008473ffffffffffffffffffffffffffffffffffffffff1673ffffffffffffffffffffffffffffffffffffffff1681526020019081526020016000205461352c90919063ffffffff16565b600460003373ffffffffffffffffffffffffffffffffffffffff1673ffffffffffffffffffffffffffffffffffffffff16815260200190815260200160002060008373ffffffffffffffffffffffffffffffffffffffff1673ffffffffffffffffffffffffffffffffffffffff168152602001908152602001600020819055506000600960003373ffffffffffffffffffffffffffffffffffffffff1673ffffffffffffffffffffffffffffffffffffffff168152602001908152602001600020600185612f4e9190613c55565b81548110612f5f57612f5e613c89565b5b906000526020600020906007020160030160009054906101000a900473ffffffffffffffffffffffffffffffffffffffff169050612fe585600360008473ffffffffffffffffffffffffffffffffffffffff1673ffffffffffffffffffffffffffffffffffffffff1681526020019081526020016000205461352c90919063ffffffff16565b600360008373ffffffffffffffffffffffffffffffffffffffff1673ffffffffffffffffffffffffffffffffffffffff1681526020019081526020016000208190555061307a85600260008473ffffffffffffffffffffffffffffffffffffffff1673ffffffffffffffffffffffffffffffffffffffff168152602001908152602001600020546134e290919063ffffffff16565b600260008373ffffffffffffffffffffffffffffffffffffffff1673ffffffffffffffffffffffffffffffffffffffff16815260200190815260200160002081905550600960003373ffffffffffffffffffffffffffffffffffffffff1673ffffffffffffffffffffffffffffffffffffffff1681526020019081526020016000206001856131099190613c55565b8154811061311a57613119613c89565b5b906000526020600020906007020160020154600960003373ffffffffffffffffffffffffffffffffffffffff1673ffffffffffffffffffffffffffffffffffffffff1681526020019081526020016000206001866131789190613c55565b8154811061318957613188613c89565b5b906000526020600020906007020160010154141561323d576002600960003373ffffffffffffffffffffffffffffffffffffffff1673ffffffffffffffffffffffffffffffffffffffff1681526020019081526020016000206001866131ef9190613c55565b81548110613200576131ff613c89565b5b906000526020600020906007020160060160006101000a81548160ff021916908360028111156132335761323261387a565b5b02179055506132d5565b6001600960003373ffffffffffffffffffffffffffffffffffffffff1673ffffffffffffffffffffffffffffffffffffffff16815260200190815260200160002060018661328b9190613c55565b8154811061329c5761329b613c89565b5b906000526020600020906007020160060160006101000a81548160ff021916908360028111156132cf576132ce61387a565b5b02179055505b833373ffffffffffffffffffffffffffffffffffffffff167f1b8cd61ed43bec7c6bdad3a18ffee613f99c853d16c50678d248d879e1b434388760405161331c91906136af565b60405180910390a38073ffffffffffffffffffffffffffffffffffffffff166323b872dd3330886040518463ffffffff1660e01b815260040161336193929190613cb8565b6020604051808303816000875af1158015613380573d6000803e3d6000fd5b505050506040513d601f19601f820116820180604052508101906133a49190613b7c565b9250505092915050565b60076020528060005260406000206000915090505481565b60066020528060005260406000206000915090508060000154908060010154905082565b6133f2613524565b73ffffffffffffffffffffffffffffffffffffffff1661341061159d565b73ffffffffffffffffffffffffffffffffffffffff1614613466576040517f08c379a000000000000000000000000000000000000000000000000000000000815260040161345d90613c06565b60405180910390fd5b600073ffffffffffffffffffffffffffffffffffffffff168173ffffffffffffffffffffffffffffffffffffffff1614156134d6576040517f08c379a00000000000000000000000000000000000000000000000000000000081526004016134cd906140bf565b60405180910390fd5b6134df81613542565b50565b600081836134f091906140df565b905092915050565b600081836135069190614135565b905092915050565b6000818361351c919061418f565b905092915050565b600033905090565b6000818361353a9190613c55565b905092915050565b60008060009054906101000a900473ffffffffffffffffffffffffffffffffffffffff169050816000806101000a81548173ffffffffffffffffffffffffffffffffffffffff021916908373ffffffffffffffffffffffffffffffffffffffff1602179055508173ffffffffffffffffffffffffffffffffffffffff168173ffffffffffffffffffffffffffffffffffffffff167f8be0079c531659141344cd1fd0a4f28419497f9722a3daafe3b4186f6b6457e060405160405180910390a35050565b600080fd5b600073ffffffffffffffffffffffffffffffffffffffff82169050919050565b60006136368261360b565b9050919050565b6136468161362b565b811461365157600080fd5b50565b6000813590506136638161363d565b92915050565b60006020828403121561367f5761367e613606565b5b600061368d84828501613654565b91505092915050565b6000819050919050565b6136a981613696565b82525050565b60006020820190506136c460008301846136a0565b92915050565b6136d381613696565b81146136de57600080fd5b50565b6000813590506136f0816136ca565b92915050565b6000806040838503121561370d5761370c613606565b5b600061371b858286016136e1565b925050602061372c85828601613654565b9150509250929050565b6000806040838503121561374d5761374c613606565b5b600061375b85828601613654565b925050602061376c858286016136e1565b9150509250929050565b60008115159050919050565b61378b81613776565b82525050565b60006020820190506137a66000830184613782565b92915050565b6000602082840312156137c2576137c1613606565b5b60006137d0848285016136e1565b91505092915050565b6137e28161362b565b82525050565b60006020820190506137fd60008301846137d9565b92915050565b6000806040838503121561381a57613819613606565b5b600061382885828601613654565b925050602061383985828601613654565b9150509250929050565b600060608201905061385860008301866136a0565b61386560208301856136a0565b61387260408301846136a0565b949350505050565b7f4e487b7100000000000000000000000000000000000000000000000000000000600052602160045260246000fd5b600381106138ba576138b961387a565b5b50565b60008190506138cb826138a9565b919050565b60006138db826138bd565b9050919050565b6138eb816138d0565b82525050565b600060e082019050613906600083018a6136a0565b61391360208301896136a0565b61392060408301886136a0565b61392d60608301876137d9565b61393a60808301866137d9565b61394760a08301856136a0565b61395460c08301846138e2565b98975050505050505050565b600069ffffffffffffffffffff82169050919050565b61397f81613960565b82525050565b6000819050919050565b61399881613985565b82525050565b600060a0820190506139b36000830188613976565b6139c0602083018761398f565b6139cd60408301866136a0565b6139da60608301856136a0565b6139e76080830184613976565b9695505050505050565b600080600060608486031215613a0a57613a09613606565b5b6000613a18868287016136e1565b9350506020613a2986828701613654565b9250506040613a3a86828701613654565b9150509250925092565b6000819050919050565b6000613a69613a64613a5f8461360b565b613a44565b61360b565b9050919050565b6000613a7b82613a4e565b9050919050565b6000613a8d82613a70565b9050919050565b613a9d81613a82565b82525050565b6000602082019050613ab86000830184613a94565b92915050565b60008060408385031215613ad557613ad4613606565b5b6000613ae3858286016136e1565b9250506020613af4858286016136e1565b9150509250929050565b6000604082019050613b1360008301856136a0565b613b2060208301846136a0565b9392505050565b6000604082019050613b3c60008301856137d9565b613b4960208301846136a0565b9392505050565b613b5981613776565b8114613b6457600080fd5b50565b600081519050613b7681613b50565b92915050565b600060208284031215613b9257613b91613606565b5b6000613ba084828501613b67565b91505092915050565b600082825260208201905092915050565b7f4f776e61626c653a2063616c6c6572206973206e6f7420746865206f776e6572600082015250565b6000613bf0602083613ba9565b9150613bfb82613bba565b602082019050919050565b60006020820190508181036000830152613c1f81613be3565b9050919050565b7f4e487b7100000000000000000000000000000000000000000000000000000000600052601160045260246000fd5b6000613c6082613696565b9150613c6b83613696565b925082821015613c7e57613c7d613c26565b5b828203905092915050565b7f4e487b7100000000000000000000000000000000000000000000000000000000600052603260045260246000fd5b6000606082019050613ccd60008301866137d9565b613cda60208301856137d9565b613ce760408301846136a0565b949350505050565b613cf881613960565b8114613d0357600080fd5b50565b600081519050613d1581613cef565b92915050565b613d2481613985565b8114613d2f57600080fd5b50565b600081519050613d4181613d1b565b92915050565b600081519050613d56816136ca565b92915050565b600080600080600060a08688031215613d7857613d77613606565b5b6000613d8688828901613d06565b9550506020613d9788828901613d32565b9450506040613da888828901613d47565b9350506060613db988828901613d47565b9250506080613dca88828901613d06565b9150509295509295909350565b7f4e487b7100000000000000000000000000000000000000000000000000000000600052601260045260246000fd5b6000613e1182613985565b9150613e1c83613985565b925082613e2c57613e2b613dd7565b5b600160000383147f800000000000000000000000000000000000000000000000000000000000000083141615613e6557613e64613c26565b5b828205905092915050565b7f6c6f772062616c616e6365000000000000000000000000000000000000000000600082015250565b6000613ea6600b83613ba9565b9150613eb182613e70565b602082019050919050565b60006020820190508181036000830152613ed581613e99565b9050919050565b7f6c6f7720776974686472617761626c6520616d6f756e74000000000000000000600082015250565b6000613f12601783613ba9565b9150613f1d82613edc565b602082019050919050565b60006020820190508181036000830152613f4181613f05565b9050919050565b600060208284031215613f5e57613f5d613606565b5b6000613f6c84828501613d47565b91505092915050565b7f696e73756666696369656e7420636f6c6c61746572616c000000000000000000600082015250565b6000613fab601783613ba9565b9150613fb682613f75565b602082019050919050565b60006020820190508181036000830152613fda81613f9e565b9050919050565b7f4c6f616e20616c72656164792070616964000000000000000000000000000000600082015250565b6000614017601183613ba9565b915061402282613fe1565b602082019050919050565b600060208201905081810360008301526140468161400a565b9050919050565b7f4f776e61626c653a206e6577206f776e657220697320746865207a65726f206160008201527f6464726573730000000000000000000000000000000000000000000000000000602082015250565b60006140a9602683613ba9565b91506140b48261404d565b604082019050919050565b600060208201905081810360008301526140d88161409c565b9050919050565b60006140ea82613696565b91506140f583613696565b9250827fffffffffffffffffffffffffffffffffffffffffffffffffffffffffffffffff0382111561412a57614129613c26565b5b828201905092915050565b600061414082613696565b915061414b83613696565b9250817fffffffffffffffffffffffffffffffffffffffffffffffffffffffffffffffff048311821515161561418457614183613c26565b5b828202905092915050565b600061419a82613696565b91506141a583613696565b9250826141b5576141b4613dd7565b5b82820490509291505056fea264697066735822122055ba0e08a8929b4d97d83a1ed4e898118af62fa5e8cd75103f566515ebed48f364736f6c634300080a003360806040523480156200001157600080fd5b506040516200218038038062002180833981810160405281019062000037919062000490565b6040518060400160405280600981526020017f52414b20546f6b656e00000000000000000000000000000000000000000000008152506040518060400160405280600381526020017f52414b00000000000000000000000000000000000000000000000000000000008152508160039080519060200190620000bb929190620003a0565b508060049080519060200190620000d4929190620003a0565b505050620000f7620000eb6200013760201b60201c565b6200013f60201b60201c565b60006200011b678ac7230489e80000836200020560201b62000ac61790919060201c565b90506200012f33826200021d60201b60201c565b5050620006c5565b600033905090565b6000600560009054906101000a900473ffffffffffffffffffffffffffffffffffffffff16905081600560006101000a81548173ffffffffffffffffffffffffffffffffffffffff021916908373ffffffffffffffffffffffffffffffffffffffff1602179055508173ffffffffffffffffffffffffffffffffffffffff168173ffffffffffffffffffffffffffffffffffffffff167f8be0079c531659141344cd1fd0a4f28419497f9722a3daafe3b4186f6b6457e060405160405180910390a35050565b60008183620002159190620004f1565b905092915050565b600073ffffffffffffffffffffffffffffffffffffffff168273ffffffffffffffffffffffffffffffffffffffff16141562000290576040517f08c379a00000000000000000000000000000000000000000000000000000000081526004016200028790620005b3565b60405180910390fd5b620002a4600083836200039660201b60201c565b8060026000828254620002b89190620005d5565b92505081905550806000808473ffffffffffffffffffffffffffffffffffffffff1673ffffffffffffffffffffffffffffffffffffffff16815260200190815260200160002060008282546200030f9190620005d5565b925050819055508173ffffffffffffffffffffffffffffffffffffffff16600073ffffffffffffffffffffffffffffffffffffffff167fddf252ad1be2c89b69c2b068fc378daa952ba7f163c4a11628f55a4df523b3ef8360405162000376919062000643565b60405180910390a362000392600083836200039b60201b60201c565b5050565b505050565b505050565b828054620003ae906200068f565b90600052602060002090601f016020900481019282620003d257600085556200041e565b82601f10620003ed57805160ff19168380011785556200041e565b828001600101855582156200041e579182015b828111156200041d57825182559160200191906001019062000400565b5b5090506200042d919062000431565b5090565b5b808211156200044c57600081600090555060010162000432565b5090565b600080fd5b6000819050919050565b6200046a8162000455565b81146200047657600080fd5b50565b6000815190506200048a816200045f565b92915050565b600060208284031215620004a957620004a862000450565b5b6000620004b98482850162000479565b91505092915050565b7f4e487b7100000000000000000000000000000000000000000000000000000000600052601160045260246000fd5b6000620004fe8262000455565b91506200050b8362000455565b9250817fffffffffffffffffffffffffffffffffffffffffffffffffffffffffffffffff0483118215151615620005475762000546620004c2565b5b828202905092915050565b600082825260208201905092915050565b7f45524332303a206d696e7420746f20746865207a65726f206164647265737300600082015250565b60006200059b601f8362000552565b9150620005a88262000563565b602082019050919050565b60006020820190508181036000830152620005ce816200058c565b9050919050565b6000620005e28262000455565b9150620005ef8362000455565b9250827fffffffffffffffffffffffffffffffffffffffffffffffffffffffffffffffff03821115620006275762000626620004c2565b5b828201905092915050565b6200063d8162000455565b82525050565b60006020820190506200065a600083018462000632565b92915050565b7f4e487b7100000000000000000000000000000000000000000000000000000000600052602260045260246000fd5b60006002820490506001821680620006a857607f821691505b60208210811415620006bf57620006be62000660565b5b50919050565b611aab80620006d56000396000f3fe608060405234801561001057600080fd5b50600436106100f55760003560e01c806370a0823111610097578063a457c2d711610066578063a457c2d71461028a578063a9059cbb146102ba578063dd62ed3e146102ea578063f2fde38b1461031a576100f5565b806370a0823114610214578063715018a6146102445780638da5cb5b1461024e57806395d89b411461026c576100f5565b806323b872dd116100d357806323b872dd14610166578063313ce5671461019657806339509351146101b457806343d7cce6146101e4576100f5565b806306fdde03146100fa578063095ea7b31461011857806318160ddd14610148575b600080fd5b610102610336565b60405161010f9190611177565b60405180910390f35b610132600480360381019061012d9190611232565b6103c8565b60405161013f919061128d565b60405180910390f35b6101506103eb565b60405161015d91906112b7565b60405180910390f35b610180600480360381019061017b91906112d2565b6103f5565b60405161018d919061128d565b60405180910390f35b61019e6104ec565b6040516101ab9190611341565b60405180910390f35b6101ce60048036038101906101c99190611232565b6104f5565b6040516101db919061128d565b60405180910390f35b6101fe60048036038101906101f99190611232565b61059f565b60405161020b91906112b7565b60405180910390f35b61022e6004803603810190610229919061135c565b6105dc565b60405161023b91906112b7565b60405180910390f35b61024c610624565b005b6102566106ac565b6040516102639190611398565b60405180910390f35b6102746106d6565b6040516102819190611177565b60405180910390f35b6102a4600480360381019061029f9190611232565b610768565b6040516102b1919061128d565b60405180910390f35b6102d460048036038101906102cf9190611232565b610852565b6040516102e1919061128d565b60405180910390f35b61030460048036038101906102ff91906113b3565b610947565b60405161031191906112b7565b60405180910390f35b610334600480360381019061032f919061135c565b6109ce565b005b60606003805461034590611422565b80601f016020809104026020016040519081016040528092919081815260200182805461037190611422565b80156103be5780601f10610393576101008083540402835291602001916103be565b820191906000526020600020905b8154815290600101906020018083116103a157829003601f168201915b5050505050905090565b6000806103d3610adc565b90506103e0818585610ae4565b600191505092915050565b6000600254905090565b600082600073ffffffffffffffffffffffffffffffffffffffff168173ffffffffffffffffffffffffffffffffffffffff161415610468576040517f08c379a000000000000000000000000000000000000000000000000000000000815260040161045f906114a0565b60405180910390fd5b3073ffffffffffffffffffffffffffffffffffffffff168173ffffffffffffffffffffffffffffffffffffffff1614156104d7576040517f08c379a00000000000000000000000000000000000000000000000000000000081526004016104ce906114a0565b60405180910390fd5b6104e2858585610caf565b9150509392505050565b60006012905090565b600080610500610adc565b9050610594818585600160008673ffffffffffffffffffffffffffffffffffffffff1673ffffffffffffffffffffffffffffffffffffffff16815260200190815260200160002060008973ffffffffffffffffffffffffffffffffffffffff1673ffffffffffffffffffffffffffffffffffffffff1681526020019081526020016000205461058f91906114ef565b610ae4565b600191505092915050565b6000806105bd678ac7230489e8000084610ac690919063ffffffff16565b90506105c98482610852565b506105d3336105dc565b91505092915050565b60008060008373ffffffffffffffffffffffffffffffffffffffff1673ffffffffffffffffffffffffffffffffffffffff168152602001908152602001600020549050919050565b61062c610adc565b73ffffffffffffffffffffffffffffffffffffffff1661064a6106ac565b73ffffffffffffffffffffffffffffffffffffffff16146106a0576040517f08c379a000000000000000000000000000000000000000000000000000000000815260040161069790611591565b60405180910390fd5b6106aa6000610cde565b565b6000600560009054906101000a900473ffffffffffffffffffffffffffffffffffffffff16905090565b6060600480546106e590611422565b80601f016020809104026020016040519081016040528092919081815260200182805461071190611422565b801561075e5780601f106107335761010080835404028352916020019161075e565b820191906000526020600020905b81548152906001019060200180831161074157829003601f168201915b5050505050905090565b600080610773610adc565b90506000600160008373ffffffffffffffffffffffffffffffffffffffff1673ffffffffffffffffffffffffffffffffffffffff16815260200190815260200160002060008673ffffffffffffffffffffffffffffffffffffffff1673ffffffffffffffffffffffffffffffffffffffff16815260200190815260200160002054905083811015610839576040517f08c379a000000000000000000000000000000000000000000000000000000000815260040161083090611623565b60405180910390fd5b6108468286868403610ae4565b60019250505092915050565b600082600073ffffffffffffffffffffffffffffffffffffffff168173ffffffffffffffffffffffffffffffffffffffff1614156108c5576040517f08c379a00000000000000000000000000000000000000000000000000000000081526004016108bc906114a0565b60405180910390fd5b3073ffffffffffffffffffffffffffffffffffffffff168173ffffffffffffffffffffffffffffffffffffffff161415610934576040517f08c379a000000000000000000000000000000000000000000000000000000000815260040161092b906114a0565b60405180910390fd5b61093e8484610da4565b91505092915050565b6000600160008473ffffffffffffffffffffffffffffffffffffffff1673ffffffffffffffffffffffffffffffffffffffff16815260200190815260200160002060008373ffffffffffffffffffffffffffffffffffffffff1673ffffffffffffffffffffffffffffffffffffffff16815260200190815260200160002054905092915050565b6109d6610adc565b73ffffffffffffffffffffffffffffffffffffffff166109f46106ac565b73ffffffffffffffffffffffffffffffffffffffff1614610a4a576040517f08c379a0000000000000000000000000000000000000000000000000000000008152600401610a4190611591565b60405180910390fd5b600073ffffffffffffffffffffffffffffffffffffffff168173ffffffffffffffffffffffffffffffffffffffff161415610aba576040517f08c379a0000000000000000000000000000000000000000000000000000000008152600401610ab1906116b5565b60405180910390fd5b610ac381610cde565b50565b60008183610ad491906116d5565b905092915050565b600033905090565b600073ffffffffffffffffffffffffffffffffffffffff168373ffffffffffffffffffffffffffffffffffffffff161415610b54576040517f08c379a0000000000000000000000000000000000000000000000000000000008152600401610b4b906117a1565b60405180910390fd5b600073ffffffffffffffffffffffffffffffffffffffff168273ffffffffffffffffffffffffffffffffffffffff161415610bc4576040517f08c379a0000000000000000000000000000000000000000000000000000000008152600401610bbb90611833565b60405180910390fd5b80600160008573ffffffffffffffffffffffffffffffffffffffff1673ffffffffffffffffffffffffffffffffffffffff16815260200190815260200160002060008473ffffffffffffffffffffffffffffffffffffffff1673ffffffffffffffffffffffffffffffffffffffff168152602001908152602001600020819055508173ffffffffffffffffffffffffffffffffffffffff168373ffffffffffffffffffffffffffffffffffffffff167f8c5be1e5ebec7d5bd14f71427d1e84f3dd0314c0f7b2291e5b200ac8c7c3b92583604051610ca291906112b7565b60405180910390a3505050565b600080610cba610adc565b9050610cc7858285610dc7565b610cd2858585610e53565b60019150509392505050565b6000600560009054906101000a900473ffffffffffffffffffffffffffffffffffffffff16905081600560006101000a81548173ffffffffffffffffffffffffffffffffffffffff021916908373ffffffffffffffffffffffffffffffffffffffff1602179055508173ffffffffffffffffffffffffffffffffffffffff168173ffffffffffffffffffffffffffffffffffffffff167f8be0079c531659141344cd1fd0a4f28419497f9722a3daafe3b4186f6b6457e060405160405180910390a35050565b600080610daf610adc565b9050610dbc818585610e53565b600191505092915050565b6000610dd38484610947565b90507fffffffffffffffffffffffffffffffffffffffffffffffffffffffffffffffff8114610e4d5781811015610e3f576040517f08c379a0000000000000000000000000000000000000000000000000000000008152600401610e369061189f565b60405180910390fd5b610e4c8484848403610ae4565b5b50505050565b600073ffffffffffffffffffffffffffffffffffffffff168373ffffffffffffffffffffffffffffffffffffffff161415610ec3576040517f08c379a0000000000000000000000000000000000000000000000000000000008152600401610eba90611931565b60405180910390fd5b600073ffffffffffffffffffffffffffffffffffffffff168273ffffffffffffffffffffffffffffffffffffffff161415610f33576040517f08c379a0000000000000000000000000000000000000000000000000000000008152600401610f2a906119c3565b60405180910390fd5b610f3e8383836110d4565b60008060008573ffffffffffffffffffffffffffffffffffffffff1673ffffffffffffffffffffffffffffffffffffffff16815260200190815260200160002054905081811015610fc4576040517f08c379a0000000000000000000000000000000000000000000000000000000008152600401610fbb90611a55565b60405180910390fd5b8181036000808673ffffffffffffffffffffffffffffffffffffffff1673ffffffffffffffffffffffffffffffffffffffff16815260200190815260200160002081905550816000808573ffffffffffffffffffffffffffffffffffffffff1673ffffffffffffffffffffffffffffffffffffffff168152602001908152602001600020600082825461105791906114ef565b925050819055508273ffffffffffffffffffffffffffffffffffffffff168473ffffffffffffffffffffffffffffffffffffffff167fddf252ad1be2c89b69c2b068fc378daa952ba7f163c4a11628f55a4df523b3ef846040516110bb91906112b7565b60405180910390a36110ce8484846110d9565b50505050565b505050565b505050565b600081519050919050565b600082825260208201905092915050565b60005b838110156111185780820151818401526020810190506110fd565b83811115611127576000848401525b50505050565b6000601f19601f8301169050919050565b6000611149826110de565b61115381856110e9565b93506111638185602086016110fa565b61116c8161112d565b840191505092915050565b60006020820190508181036000830152611191818461113e565b905092915050565b600080fd5b600073ffffffffffffffffffffffffffffffffffffffff82169050919050565b60006111c98261119e565b9050919050565b6111d9816111be565b81146111e457600080fd5b50565b6000813590506111f6816111d0565b92915050565b6000819050919050565b61120f816111fc565b811461121a57600080fd5b50565b60008135905061122c81611206565b92915050565b6000806040838503121561124957611248611199565b5b6000611257858286016111e7565b92505060206112688582860161121d565b9150509250929050565b60008115159050919050565b61128781611272565b82525050565b60006020820190506112a2600083018461127e565b92915050565b6112b1816111fc565b82525050565b60006020820190506112cc60008301846112a8565b92915050565b6000806000606084860312156112eb576112ea611199565b5b60006112f9868287016111e7565b935050602061130a868287016111e7565b925050604061131b8682870161121d565b9150509250925092565b600060ff82169050919050565b61133b81611325565b82525050565b60006020820190506113566000830184611332565b92915050565b60006020828403121561137257611371611199565b5b6000611380848285016111e7565b91505092915050565b611392816111be565b82525050565b60006020820190506113ad6000830184611389565b92915050565b600080604083850312156113ca576113c9611199565b5b60006113d8858286016111e7565b92505060206113e9858286016111e7565b9150509250929050565b7f4e487b7100000000000000000000000000000000000000000000000000000000600052602260045260246000fd5b6000600282049050600182168061143a57607f821691505b6020821081141561144e5761144d6113f3565b5b50919050565b7f4e6f7420612076616c6964206164647265737300000000000000000000000000600082015250565b600061148a6013836110e9565b915061149582611454565b602082019050919050565b600060208201905081810360008301526114b98161147d565b9050919050565b7f4e487b7100000000000000000000000000000000000000000000000000000000600052601160045260246000fd5b60006114fa826111fc565b9150611505836111fc565b9250827fffffffffffffffffffffffffffffffffffffffffffffffffffffffffffffffff0382111561153a576115396114c0565b5b828201905092915050565b7f4f776e61626c653a2063616c6c6572206973206e6f7420746865206f776e6572600082015250565b600061157b6020836110e9565b915061158682611545565b602082019050919050565b600060208201905081810360008301526115aa8161156e565b9050919050565b7f45524332303a2064656372656173656420616c6c6f77616e63652062656c6f7760008201527f207a65726f000000000000000000000000000000000000000000000000000000602082015250565b600061160d6025836110e9565b9150611618826115b1565b604082019050919050565b6000602082019050818103600083015261163c81611600565b9050919050565b7f4f776e61626c653a206e6577206f776e657220697320746865207a65726f206160008201527f6464726573730000000000000000000000000000000000000000000000000000602082015250565b600061169f6026836110e9565b91506116aa82611643565b604082019050919050565b600060208201905081810360008301526116ce81611692565b9050919050565b60006116e0826111fc565b91506116eb836111fc565b9250817fffffffffffffffffffffffffffffffffffffffffffffffffffffffffffffffff0483118215151615611724576117236114c0565b5b828202905092915050565b7f45524332303a20617070726f76652066726f6d20746865207a65726f2061646460008201527f7265737300000000000000000000000000000000000000000000000000000000602082015250565b600061178b6024836110e9565b91506117968261172f565b604082019050919050565b600060208201905081810360008301526117ba8161177e565b9050919050565b7f45524332303a20617070726f766520746f20746865207a65726f20616464726560008201527f7373000000000000000000000000000000000000000000000000000000000000602082015250565b600061181d6022836110e9565b9150611828826117c1565b604082019050919050565b6000602082019050818103600083015261184c81611810565b9050919050565b7f45524332303a20696e73756666696369656e7420616c6c6f77616e6365000000600082015250565b6000611889601d836110e9565b915061189482611853565b602082019050919050565b600060208201905081810360008301526118b88161187c565b9050919050565b7f45524332303a207472616e736665722066726f6d20746865207a65726f20616460008201527f6472657373000000000000000000000000000000000000000000000000000000602082015250565b600061191b6025836110e9565b9150611926826118bf565b604082019050919050565b6000602082019050818103600083015261194a8161190e565b9050919050565b7f45524332303a207472616e7366657220746f20746865207a65726f206164647260008201527f6573730000000000000000000000000000000000000000000000000000000000602082015250565b60006119ad6023836110e9565b91506119b882611951565b604082019050919050565b600060208201905081810360008301526119dc816119a0565b9050919050565b7f45524332303a207472616e7366657220616d6f756e742065786365656473206260008201527f616c616e63650000000000000000000000000000000000000000000000000000602082015250565b6000611a3f6026836110e9565b9150611a4a826119e3565b604082019050919050565b60006020820190508181036000830152611a6e81611a32565b905091905056fea26469706673582212203580a56d305bb6acfc0c26bceaaf3909afd4200e47caae3e78a3708bfb6040b164736f6c634300080a0033",
  "immutableReferences": {},
  "source": "// SPDX-License-Identifier: GPL-3.0\npragma solidity ^0.8.0;\n\nimport \"../node_modules/@openzeppelin/contracts/utils/math/SafeMath.sol\";\nimport \"../node_modules/@openzeppelin/contracts/access/Ownable.sol\";\nimport \"../node_modules/@chainlink/contracts/src/v0.8/interfaces/AggregatorV3Interface.sol\";\n\nimport \"./RakToken.sol\";\n\ncontract NewPool is Ownable {\n    /**\n     * @notice Safe guarding contract from integer\n     * overflow and underflow vulnerabilities.\n     */\n    using SafeMath for uint256;\n\n    /**\n     * @notice Enum to specify the current state of loan repayment\n     */\n    enum Status {\n        Pending,\n        PartiallyPaid,\n        Paid\n    }\n\n    /**\n     * @notice struct to define the characteristics of a loan\n     */\n    struct LoanInfo {\n        uint256 loanId;\n        uint256 totalLoanedAmount;\n        uint256 totalRepayAmount;\n        address tokenAddress;\n        address colateralAddress;\n        uint256 blockNumber;\n        Status status;\n    }\n\n    /**\n     * @notice struct to define the characteristics of a Deposit\n     */\n    struct DepositInfo {\n        uint256 amount;\n        uint256 blockNumber;\n        uint256 totalInterestEarned;\n    }\n\n    /**\n     * @notice struct to define the characteristics of a\n     * InterestInfo of a token\n     */\n    struct InterestInfo {\n        uint256 depositInterest;\n        uint256 borrowInterest;\n    }\n\n    /**\n     * @notice mapping user address to token address to deposited amount\n     */\n    mapping(address => mapping(address => DepositInfo)) public userTokenBal;\n\n    /**\n     * @notice mapping token address to total token available\n     */\n    mapping(address => uint256) public totalTokenAvailable;\n\n    /**\n     * @notice mapping token address to total token borrowed\n     */\n    mapping(address => uint256) public totalTokenBorrowed;\n\n    /**\n     * @notice mapping user address to token address to user total locked balance\n     */\n    mapping(address => mapping(address => uint256)) public userTokenLockedBal;\n\n    /**\n     * @notice mapping user address to total loan count\n     */\n    mapping(address => uint256) public userLoanCount;\n\n    /**\n     * @notice mapping token address to struct IntersetInfo\n     */\n    mapping(address => InterestInfo) public tokenInterestInfo;\n\n    /**\n     * @notice mapping useraddress to eth balance\n     */\n    mapping(address => uint256) public ethBalance;\n\n    /**\n     * @notice keeps track of tokens registered\n     */\n    mapping(uint256 => address) public tokens;\n\n    /**\n     * @notice mapping user address to user loan data\n     */\n    mapping(address => LoanInfo[]) public userLoanData;\n\n    /**\n     * @notice stores no of token availabel\n     */\n    uint256 public tokenCount;\n\n    /**\n     * @notice block time of the network\n     */\n    uint256 public blockTime;\n\n    /**\n     * @notice oracle pricefeed interface\n     */\n    AggregatorV3Interface internal priceFeed;\n\n    /**\n     * @notice this variable stores the RakToken contract address\n     */\n    RakToken public rakToken;\n\n    /**\n     * @notice this event is for - when a user deposits ETH\n     */\n    event DepositedEth(address indexed depositor, uint256 amount);\n\n    /**\n     * @notice this event is for - when a user deposits Tokens\n     */\n    event DepositedToken(\n        address indexed depositor,\n        address indexed token,\n        uint256 amount\n    );\n\n    /**\n     * @notice this event is for - when a user borrows tokens\n     */\n    event Borrowed(\n        address indexed borrower,\n        address indexed token,\n        uint256 amount\n    );\n\n    /**\n     * @notice this event is for - when a user repays a loan\n     */\n    event Repaid(\n        address indexed borrower,\n        uint256 indexed loanId,\n        uint256 amount\n    );\n\n    /**\n     * @notice this event is for - when a user withdraws ETH\n     */\n    event WithdrawnEth(address indexed depositor, uint256 amount);\n\n    /**\n     * @notice this event is for - when a user withdraws tokens\n     */\n    event WithdrwanToken(\n        address indexed depositor,\n        address indexed token,\n        uint256 amount\n    );\n\n    /**\n     * @notice Constructor, which is a function that executes\n     * once (on deployment) sets block time, price feed for oracle,\n     * rakToken, Available rakTokens\n     */\n    constructor() {\n        priceFeed = AggregatorV3Interface(\n            0x8A753747A1Fa494EC906cE90E9f37563A8AF630e\n        );\n        blockTime = 14; // 14 seconds for Ethereum main net\n        rakToken = new RakToken(100000000);\n        totalTokenAvailable[address(rakToken)] = rakToken.balanceOf(\n            address(this)\n        );\n    }\n\n    /**\n     * @notice This functions runs when user sends eth directly to the contract\n     */\n    receive() external payable {\n        depositEth();\n    }\n\n    /**\n     * @notice this function is used for registering a token\n     * @param tokenAddress the address of the token\n     */\n    function registerToken(address tokenAddress) public onlyOwner {\n        tokenCount = tokenCount.add(1);\n        tokens[tokenCount] = tokenAddress;\n    }\n\n    /**\n     * @notice Get the latest interest rate\n     * @param tokenAddress the address of the token\n     * @return utilityFactor the interest rate depends on supply and demand\n     */\n    function checkInterestInfo(address tokenAddress)\n        public\n        view\n        returns (uint256)\n    {\n        uint256 totalBalance = totalTokenAvailable[tokenAddress];\n        uint256 totalBorrow = totalTokenBorrowed[tokenAddress];\n        uint256 utilityFactor = (totalBorrow.mul(100)).div(\n            totalBalance.add(totalBorrow)\n        );\n        return utilityFactor;\n    }\n\n    /**\n     * @notice Get the latest interest rate\n     * @param tokenAddress the address of the token\n     * @return tokenInterestInfo for depositor\n     */\n    function getDepositInterestRate(address tokenAddress)\n        public\n        returns (uint256)\n    {\n        uint256 num = 2500;\n        uint256 interestRate = (num).add(\n            checkInterestInfo(tokenAddress).mul(2)\n        );\n        return tokenInterestInfo[tokenAddress].depositInterest = interestRate;\n    }\n\n    /**\n     * @notice Get the latest interest rate\n     * @param tokenAddress the address of the token\n     * @return tokenInterestInfo for borrower\n     */\n    function getBorrowerInterestRate(address tokenAddress)\n        public\n        returns (uint256)\n    {\n        uint256 num = 3000;\n        uint256 interestRate = (num).add(\n            checkInterestInfo(tokenAddress).mul(2)\n        );\n        return tokenInterestInfo[tokenAddress].borrowInterest = interestRate;\n    }\n\n    /**\n     * @notice calculate and update depositor's interest\n     * @param tokenAddress the address of the token\n     */\n    function calculateDepositorInterest(address tokenAddress) public {\n        // duration in seconds from deposit block to this block\n        uint256 duration = block\n            .number\n            .sub(userTokenBal[msg.sender][tokenAddress].blockNumber)\n            .mul(blockTime);\n\n        // calculating interest by (principle * APR/100 * duration in seconds) / seconds in a year\n        uint256 secondsInYear = uint256(36525).mul(86400).div(100);\n        uint256 interest = (userTokenBal[msg.sender][tokenAddress].amount)\n            .mul(duration)\n            .mul(getDepositInterestRate(tokenAddress))\n            .div(100)\n            .div(secondsInYear);\n        userTokenBal[msg.sender][tokenAddress].amount = userTokenBal[\n            msg.sender\n        ][tokenAddress].amount.add(interest);\n        userTokenBal[msg.sender][tokenAddress]\n            .totalInterestEarned = userTokenBal[msg.sender][tokenAddress]\n            .totalInterestEarned\n            .add(interest);\n\n        userTokenBal[msg.sender][tokenAddress].blockNumber = block.number;\n    }\n\n    /**\n     * @notice calculate and update a specific loan interest and borrowers's repay amount\n     * @param loanId the Loan Id of the Loan\n     * @param tokenAddress the address of the token\n     */\n    function calculateLoanInterest(uint256 loanId, address tokenAddress)\n        external\n    {\n        // duration in seconds from loan block to this block\n        uint256 duration = block\n            .number\n            .sub(userLoanData[msg.sender][loanId - 1].blockNumber)\n            .mul(blockTime);\n\n        // calculating interest by (principle * APR/100 * duration in seconds) / seconds in a year\n        uint256 secondsInYear = uint256(36525).mul(86400).div(100);\n        uint256 principle = userLoanData[msg.sender][loanId - 1]\n            .totalLoanedAmount -\n            userLoanData[msg.sender][loanId - 1].totalRepayAmount;\n        uint256 interest = (principle)\n            .mul(duration)\n            .mul(getBorrowerInterestRate(tokenAddress))\n            .div(100)\n            .div(secondsInYear);\n        userLoanData[msg.sender][loanId - 1].totalLoanedAmount = userLoanData[\n            msg.sender\n        ][loanId - 1].totalLoanedAmount.add(interest);\n        userLoanData[msg.sender][loanId - 1].blockNumber = block.number;\n    }\n\n    /**\n     * @notice Get the latest price of eth to USD\n     * @return price a tuple that contains price\n     */\n    function getLatestPrice()\n        public\n        view\n        returns (\n            uint80,\n            int256,\n            uint256,\n            uint256,\n            uint80\n        )\n    {\n        (\n            uint80 roundID,\n            int256 price,\n            uint256 startedAt,\n            uint256 timeStamp,\n            uint80 answeredInRound\n        ) = priceFeed.latestRoundData();\n        // for ETH / USD price is scaled up by 10 ** 8\n        price = price / 1e8;\n        return (roundID, price, startedAt, timeStamp, answeredInRound);\n    }\n\n    /**\n     * @notice deposit eth to the pool\n     * @return success true if success\n     */\n    function depositEth() public payable returns (bool success) {\n        // (, int256 latestPrice, , , ) = getLatestPrice();\n        // uint256 price = uint256(latestPrice);\n        uint256 price = 2500;\n        ERC20 tokenAddress = rakToken;\n        ethBalance[msg.sender] = ethBalance[msg.sender].add(msg.value);\n        uint256 tokenReq = price.mul(msg.value);\n        uint256 interest = 1;\n        DepositInfo memory newDeposit = DepositInfo(\n            tokenReq,\n            block.number,\n            interest\n        );\n        userTokenBal[msg.sender][address(tokenAddress)] = newDeposit;\n        totalTokenAvailable[address(tokenAddress)] = totalTokenAvailable[\n            address(tokenAddress)\n        ].add(tokenReq);\n\n        emit DepositedEth(msg.sender, msg.value);\n        return rakToken.transfer(msg.sender, tokenReq);\n    }\n\n    /**\n     * @notice deposit ERC20 token to the pool\n     * user gets rakToken for deposit\n     * @param tokenAddress ERC20 token address\n     * @param amount token deposited amount\n     * @return success true if success\n     */\n    function depositToken(address tokenAddress, uint256 amount)\n        public\n        returns (bool success)\n    {\n        uint256 balance = userTokenBal[msg.sender][tokenAddress].amount.add(\n            amount\n        );\n        totalTokenAvailable[tokenAddress] = totalTokenAvailable[tokenAddress]\n            .add(amount);\n        getDepositInterestRate(tokenAddress);\n        getBorrowerInterestRate(tokenAddress);\n        DepositInfo memory newDeposit = DepositInfo(balance, block.number, 0);\n        userTokenBal[msg.sender][tokenAddress] = newDeposit;\n\n        emit DepositedToken(msg.sender, tokenAddress, amount);\n        //rakToken.transfer(msg.sender, value);\n        return\n            ERC20(tokenAddress).transferFrom(msg.sender, address(this), amount);\n    }\n\n    /**\n     * @notice Withdraw deposited eth\n     * @param amount amount to be withdrawn\n     * @return success true if success\n     */\n    function withdrawEth(uint256 amount) public payable returns (bool success) {\n        // require(ethBalance[msg.sender] >= amount, \"low balance\");\n        // (, int256 latestPrice, , , ) = getLatestPrice();\n        //uint256 price = uint256(latestPrice);\n        uint256 price = 2500;\n        uint256 bal = rakToken.balanceOf(msg.sender);\n        uint256 withdrawableAmount = bal.sub(\n            userTokenLockedBal[msg.sender][address(rakToken)]\n        );\n        require(withdrawableAmount >= amount, \"low withdrawable amount\");\n        uint256 tokenReq = price.mul(amount);\n        ethBalance[msg.sender] = ethBalance[msg.sender].sub(amount);\n        totalTokenAvailable[address(rakToken)] = totalTokenAvailable[\n            address(rakToken)\n        ].sub(tokenReq);\n\n        emit WithdrawnEth(msg.sender, amount);\n        payable(msg.sender).transfer(amount);\n        return rakToken.transferFrom(msg.sender, address(this), tokenReq);\n    }\n\n    /**\n     * @notice Withdraw deposited ERC20 token\n     * @param amount amount to be withdrawn\n     * @param tokenAddress address of token\n     * @return success true if success\n     */\n    function withdrawToken(uint256 amount, address tokenAddress)\n        public\n        payable\n        returns (bool success)\n    {\n        require(\n            userTokenBal[msg.sender][tokenAddress].amount >= amount,\n            \"low balance\"\n        );\n        uint256 withdrawableAmount = userTokenBal[msg.sender][tokenAddress]\n            .amount\n            .sub(userTokenLockedBal[msg.sender][tokenAddress]);\n        require(withdrawableAmount >= amount, \"low withdrawable amount\");\n        //   (, int256 latestPrice, , , ) = getLatestPrice();\n        //uint256 price = uint256(latestPrice);\n        //uint tokenReq = price  * amount;\n        // ERC20(rakToken).transferFrom(msg.sender,address(this),tokenReq);\n        getDepositInterestRate(tokenAddress);\n        getBorrowerInterestRate(tokenAddress);\n        userTokenBal[msg.sender][tokenAddress].amount = userTokenBal[\n            msg.sender\n        ][tokenAddress].amount.sub(amount);\n        totalTokenAvailable[tokenAddress] = totalTokenAvailable[tokenAddress]\n            .sub(amount);\n\n        emit WithdrwanToken(msg.sender, tokenAddress, amount);\n        return ERC20(tokenAddress).transfer(msg.sender, amount);\n    }\n\n    /**\n     * @notice user take loan\n     * @param amount loan amount\n     * @param tokenAddress loan token address\n     * @param colateralAddress  colateral token address\n     */\n    function borrow(\n        uint256 amount,\n        address tokenAddress,\n        address colateralAddress\n    ) public returns (bool success) {\n        require(\n            userTokenBal[msg.sender][colateralAddress].amount >= amount,\n            \"insufficient collateral\"\n        );\n        userTokenLockedBal[msg.sender][colateralAddress] = userTokenLockedBal[\n            msg.sender\n        ][colateralAddress].add(amount);\n        userLoanCount[msg.sender] = userLoanCount[msg.sender].add(1);\n        uint256 loanId = userLoanCount[msg.sender];\n        LoanInfo memory newLoan = LoanInfo(\n            loanId,\n            amount,\n            0,\n            tokenAddress,\n            colateralAddress,\n            block.number,\n            Status.Pending\n        );\n        getDepositInterestRate(tokenAddress);\n        getBorrowerInterestRate(tokenAddress);\n        userLoanData[msg.sender].push(newLoan);\n        totalTokenBorrowed[tokenAddress] = totalTokenBorrowed[tokenAddress].add(\n            amount\n        );\n        totalTokenAvailable[tokenAddress] = totalTokenAvailable[tokenAddress]\n            .sub(amount);\n\n        emit Borrowed(msg.sender, tokenAddress, amount);\n        return ERC20(tokenAddress).transfer(msg.sender, amount);\n    }\n\n    /**\n     * @notice loan repay function\n     * @param amount loan amount\n     * @param loanId loan id\n     */\n    function repay(uint256 amount, uint256 loanId) public returns (bool) {\n        ERC20 colateralAddress = ERC20(\n            userLoanData[msg.sender][loanId - 1].colateralAddress\n        );\n        require(\n            userLoanData[msg.sender][loanId - 1].totalLoanedAmount !=\n                userLoanData[msg.sender][loanId - 1].totalRepayAmount,\n            \"Loan already paid\"\n        );\n        userLoanData[msg.sender][loanId - 1].totalRepayAmount = userLoanData[\n            msg.sender\n        ][loanId - 1].totalRepayAmount.add(amount);\n        userTokenLockedBal[msg.sender][\n            address(colateralAddress)\n        ] = userTokenLockedBal[msg.sender][address(colateralAddress)].sub(\n            amount\n        );\n        ERC20 tokenAddress = ERC20(\n            userLoanData[msg.sender][loanId - 1].tokenAddress\n        );\n        totalTokenBorrowed[address(tokenAddress)] = totalTokenBorrowed[\n            address(tokenAddress)\n        ].sub(amount);\n        totalTokenAvailable[address(tokenAddress)] = totalTokenAvailable[\n            address(tokenAddress)\n        ].add(amount);\n\n        if (\n            userLoanData[msg.sender][loanId - 1].totalLoanedAmount ==\n            userLoanData[msg.sender][loanId - 1].totalRepayAmount\n        ) {\n            userLoanData[msg.sender][loanId - 1].status = Status.Paid;\n        } else {\n            userLoanData[msg.sender][loanId - 1].status = Status.PartiallyPaid;\n        }\n\n        emit Repaid(msg.sender, loanId, amount);\n        return\n            ERC20(tokenAddress).transferFrom(msg.sender, address(this), amount);\n    }\n}\n",
  "sourcePath": "/home/sunny/Projects/lendnborrow/lendandborrow/contracts/NewPool.sol",
  "compiler": {
    "name": "solc",
    "version": "0.8.10+commit.fc410830.Emscripten.clang"
  },
  "schemaVersion": "3.4.5",
  "updatedAt": "2022-03-11T05:23:17.515Z",
  "devdoc": {
    "kind": "dev",
    "methods": {
      "borrow(uint256,address,address)": {
        "params": {
          "amount": "loan amount",
          "colateralAddress": "colateral token address",
          "tokenAddress": "loan token address"
        }
      },
      "calculateDepositorInterest(address)": {
        "params": {
          "tokenAddress": "the address of the token"
        }
      },
      "calculateLoanInterest(uint256,address)": {
        "params": {
          "loanId": "the Loan Id of the Loan",
          "tokenAddress": "the address of the token"
        }
      },
      "checkInterestInfo(address)": {
        "params": {
          "tokenAddress": "the address of the token"
        },
        "returns": {
          "_0": "utilityFactor the interest rate depends on supply and demand"
        }
      },
      "depositEth()": {
        "returns": {
          "success": "true if success"
        }
      },
      "depositToken(address,uint256)": {
        "params": {
          "amount": "token deposited amount",
          "tokenAddress": "ERC20 token address"
        },
        "returns": {
          "success": "true if success"
        }
      },
      "getBorrowerInterestRate(address)": {
        "params": {
          "tokenAddress": "the address of the token"
        },
        "returns": {
          "_0": "tokenInterestInfo for borrower"
        }
      },
      "getDepositInterestRate(address)": {
        "params": {
          "tokenAddress": "the address of the token"
        },
        "returns": {
          "_0": "tokenInterestInfo for depositor"
        }
      },
      "getLatestPrice()": {
        "returns": {
          "_0": "price a tuple that contains price"
        }
      },
      "owner()": {
        "details": "Returns the address of the current owner."
      },
      "registerToken(address)": {
        "params": {
          "tokenAddress": "the address of the token"
        }
      },
      "renounceOwnership()": {
        "details": "Leaves the contract without owner. It will not be possible to call `onlyOwner` functions anymore. Can only be called by the current owner. NOTE: Renouncing ownership will leave the contract without an owner, thereby removing any functionality that is only available to the owner."
      },
      "repay(uint256,uint256)": {
        "params": {
          "amount": "loan amount",
          "loanId": "loan id"
        }
      },
      "transferOwnership(address)": {
        "details": "Transfers ownership of the contract to a new account (`newOwner`). Can only be called by the current owner."
      },
      "withdrawEth(uint256)": {
        "params": {
          "amount": "amount to be withdrawn"
        },
        "returns": {
          "success": "true if success"
        }
      },
      "withdrawToken(uint256,address)": {
        "params": {
          "amount": "amount to be withdrawn",
          "tokenAddress": "address of token"
        },
        "returns": {
          "success": "true if success"
        }
      }
    },
    "version": 1
  },
  "userdoc": {
    "events": {
      "Borrowed(address,address,uint256)": {
        "notice": "this event is for - when a user borrows tokens"
      },
      "DepositedEth(address,uint256)": {
        "notice": "this event is for - when a user deposits ETH"
      },
      "DepositedToken(address,address,uint256)": {
        "notice": "this event is for - when a user deposits Tokens"
      },
      "Repaid(address,uint256,uint256)": {
        "notice": "this event is for - when a user repays a loan"
      },
      "WithdrawnEth(address,uint256)": {
        "notice": "this event is for - when a user withdraws ETH"
      },
      "WithdrwanToken(address,address,uint256)": {
        "notice": "this event is for - when a user withdraws tokens"
      }
    },
    "kind": "user",
    "methods": {
      "blockTime()": {
        "notice": "block time of the network"
      },
      "borrow(uint256,address,address)": {
        "notice": "user take loan"
      },
      "calculateDepositorInterest(address)": {
        "notice": "calculate and update depositor's interest"
      },
      "calculateLoanInterest(uint256,address)": {
        "notice": "calculate and update a specific loan interest and borrowers's repay amount"
      },
      "checkInterestInfo(address)": {
        "notice": "Get the latest interest rate"
      },
      "constructor": {
        "notice": "Constructor, which is a function that executes once (on deployment) sets block time, price feed for oracle, rakToken, Available rakTokens"
      },
      "depositEth()": {
        "notice": "deposit eth to the pool"
      },
      "depositToken(address,uint256)": {
        "notice": "deposit ERC20 token to the pool user gets rakToken for deposit"
      },
      "ethBalance(address)": {
        "notice": "mapping useraddress to eth balance"
      },
      "getBorrowerInterestRate(address)": {
        "notice": "Get the latest interest rate"
      },
      "getDepositInterestRate(address)": {
        "notice": "Get the latest interest rate"
      },
      "getLatestPrice()": {
        "notice": "Get the latest price of eth to USD"
      },
      "rakToken()": {
        "notice": "this variable stores the RakToken contract address"
      },
      "registerToken(address)": {
        "notice": "this function is used for registering a token"
      },
      "repay(uint256,uint256)": {
        "notice": "loan repay function"
      },
      "tokenCount()": {
        "notice": "stores no of token availabel"
      },
      "tokenInterestInfo(address)": {
        "notice": "mapping token address to struct IntersetInfo"
      },
      "tokens(uint256)": {
        "notice": "keeps track of tokens registered"
      },
      "totalTokenAvailable(address)": {
        "notice": "mapping token address to total token available"
      },
      "totalTokenBorrowed(address)": {
        "notice": "mapping token address to total token borrowed"
      },
      "userLoanCount(address)": {
        "notice": "mapping user address to total loan count"
      },
      "userLoanData(address,uint256)": {
        "notice": "mapping user address to user loan data"
      },
      "userTokenBal(address,address)": {
        "notice": "mapping user address to token address to deposited amount"
      },
      "userTokenLockedBal(address,address)": {
        "notice": "mapping user address to token address to user total locked balance"
      },
      "withdrawEth(uint256)": {
        "notice": "Withdraw deposited eth"
      },
      "withdrawToken(uint256,address)": {
        "notice": "Withdraw deposited ERC20 token"
      }
    },
    "version": 1
  }
}