{
  "contractName": "Pool",
  "abi": [
    {
      "inputs": [],
      "stateMutability": "nonpayable",
      "type": "constructor"
    },
    {
      "anonymous": false,
      "inputs": [
        {
          "indexed": true,
          "internalType": "address",
          "name": "borrower",
          "type": "address"
        },
        {
          "indexed": false,
          "internalType": "uint256",
          "name": "amount",
          "type": "uint256"
        }
      ],
      "name": "Borrowed",
      "type": "event"
    },
    {
      "anonymous": false,
      "inputs": [
        {
          "indexed": true,
          "internalType": "address",
          "name": "borrower",
          "type": "address"
        },
        {
          "indexed": false,
          "internalType": "uint256",
          "name": "amount",
          "type": "uint256"
        }
      ],
      "name": "CollateralReceived",
      "type": "event"
    },
    {
      "anonymous": false,
      "inputs": [
        {
          "indexed": true,
          "internalType": "address",
          "name": "borrower",
          "type": "address"
        },
        {
          "indexed": false,
          "internalType": "uint256",
          "name": "amount",
          "type": "uint256"
        }
      ],
      "name": "CollateralReturned",
      "type": "event"
    },
    {
      "anonymous": false,
      "inputs": [
        {
          "indexed": true,
          "internalType": "address",
          "name": "depositor",
          "type": "address"
        },
        {
          "indexed": false,
          "internalType": "uint256",
          "name": "amount",
          "type": "uint256"
        }
      ],
      "name": "Deposited",
      "type": "event"
    },
    {
      "anonymous": false,
      "inputs": [
        {
          "indexed": true,
          "internalType": "address",
          "name": "previousOwner",
          "type": "address"
        },
        {
          "indexed": true,
          "internalType": "address",
          "name": "newOwner",
          "type": "address"
        }
      ],
      "name": "OwnershipTransferred",
      "type": "event"
    },
    {
      "anonymous": false,
      "inputs": [
        {
          "indexed": true,
          "internalType": "address",
          "name": "borrower",
          "type": "address"
        },
        {
          "indexed": false,
          "internalType": "uint256",
          "name": "amount",
          "type": "uint256"
        }
      ],
      "name": "Repaid",
      "type": "event"
    },
    {
      "anonymous": false,
      "inputs": [
        {
          "indexed": true,
          "internalType": "address",
          "name": "borrower",
          "type": "address"
        },
        {
          "indexed": false,
          "internalType": "uint256",
          "name": "amount",
          "type": "uint256"
        }
      ],
      "name": "Withdrawn",
      "type": "event"
    },
    {
      "inputs": [],
      "name": "admin",
      "outputs": [
        {
          "internalType": "address",
          "name": "",
          "type": "address"
        }
      ],
      "stateMutability": "view",
      "type": "function"
    },
    {
      "inputs": [],
      "name": "blockTime",
      "outputs": [
        {
          "internalType": "uint256",
          "name": "",
          "type": "uint256"
        }
      ],
      "stateMutability": "view",
      "type": "function"
    },
    {
      "inputs": [],
      "name": "borrowerInterestRate",
      "outputs": [
        {
          "internalType": "uint256",
          "name": "",
          "type": "uint256"
        }
      ],
      "stateMutability": "view",
      "type": "function"
    },
    {
      "inputs": [
        {
          "internalType": "address",
          "name": "",
          "type": "address"
        }
      ],
      "name": "borrowers",
      "outputs": [
        {
          "internalType": "uint256",
          "name": "totalLoanedAmount",
          "type": "uint256"
        },
        {
          "internalType": "uint256",
          "name": "totalLockedCollateralAmount",
          "type": "uint256"
        },
        {
          "internalType": "uint256",
          "name": "totalUnlockedCollateralAmount",
          "type": "uint256"
        },
        {
          "internalType": "uint256",
          "name": "totalRepayAmount",
          "type": "uint256"
        }
      ],
      "stateMutability": "view",
      "type": "function"
    },
    {
      "inputs": [],
      "name": "depositorInterestRate",
      "outputs": [
        {
          "internalType": "uint256",
          "name": "",
          "type": "uint256"
        }
      ],
      "stateMutability": "view",
      "type": "function"
    },
    {
      "inputs": [
        {
          "internalType": "address",
          "name": "",
          "type": "address"
        }
      ],
      "name": "depositors",
      "outputs": [
        {
          "internalType": "uint256",
          "name": "totalDepositedAmount",
          "type": "uint256"
        },
        {
          "internalType": "uint256",
          "name": "totalInterestEarned",
          "type": "uint256"
        },
        {
          "internalType": "uint256",
          "name": "blockNumber",
          "type": "uint256"
        }
      ],
      "stateMutability": "view",
      "type": "function"
    },
    {
      "inputs": [],
      "name": "loanID",
      "outputs": [
        {
          "internalType": "uint256",
          "name": "",
          "type": "uint256"
        }
      ],
      "stateMutability": "view",
      "type": "function"
    },
    {
      "inputs": [
        {
          "internalType": "uint256",
          "name": "",
          "type": "uint256"
        }
      ],
      "name": "loans",
      "outputs": [
        {
          "internalType": "uint256",
          "name": "loanID",
          "type": "uint256"
        },
        {
          "internalType": "address",
          "name": "borrower",
          "type": "address"
        },
        {
          "internalType": "uint256",
          "name": "loanedAmount",
          "type": "uint256"
        },
        {
          "internalType": "uint256",
          "name": "collateralAmount",
          "type": "uint256"
        },
        {
          "internalType": "uint256",
          "name": "repayAmount",
          "type": "uint256"
        },
        {
          "internalType": "uint256",
          "name": "loanDuration",
          "type": "uint256"
        },
        {
          "internalType": "uint256",
          "name": "blockNumber",
          "type": "uint256"
        },
        {
          "internalType": "bool",
          "name": "repayed",
          "type": "bool"
        }
      ],
      "stateMutability": "view",
      "type": "function"
    },
    {
      "inputs": [],
      "name": "owner",
      "outputs": [
        {
          "internalType": "address",
          "name": "",
          "type": "address"
        }
      ],
      "stateMutability": "view",
      "type": "function"
    },
    {
      "inputs": [],
      "name": "poolBalance",
      "outputs": [
        {
          "internalType": "uint256",
          "name": "",
          "type": "uint256"
        }
      ],
      "stateMutability": "view",
      "type": "function"
    },
    {
      "inputs": [],
      "name": "rakToken",
      "outputs": [
        {
          "internalType": "contract RakToken",
          "name": "",
          "type": "address"
        }
      ],
      "stateMutability": "view",
      "type": "function"
    },
    {
      "inputs": [],
      "name": "renounceOwnership",
      "outputs": [],
      "stateMutability": "nonpayable",
      "type": "function"
    },
    {
      "inputs": [
        {
          "internalType": "address",
          "name": "newOwner",
          "type": "address"
        }
      ],
      "name": "transferOwnership",
      "outputs": [],
      "stateMutability": "nonpayable",
      "type": "function"
    },
    {
      "stateMutability": "payable",
      "type": "receive"
    },
    {
      "inputs": [],
      "name": "getTotalCollateralDeposited",
      "outputs": [
        {
          "internalType": "uint256",
          "name": "",
          "type": "uint256"
        }
      ],
      "stateMutability": "view",
      "type": "function"
    },
    {
      "inputs": [],
      "name": "getLatestPrice",
      "outputs": [
        {
          "internalType": "uint80",
          "name": "",
          "type": "uint80"
        },
        {
          "internalType": "int256",
          "name": "",
          "type": "int256"
        },
        {
          "internalType": "uint256",
          "name": "",
          "type": "uint256"
        },
        {
          "internalType": "uint256",
          "name": "",
          "type": "uint256"
        },
        {
          "internalType": "uint80",
          "name": "",
          "type": "uint80"
        }
      ],
      "stateMutability": "view",
      "type": "function"
    },
    {
      "inputs": [],
      "name": "getLoanIDs",
      "outputs": [
        {
          "internalType": "uint256[]",
          "name": "",
          "type": "uint256[]"
        }
      ],
      "stateMutability": "view",
      "type": "function"
    },
    {
      "inputs": [],
      "name": "calculateDepositorInterest",
      "outputs": [],
      "stateMutability": "nonpayable",
      "type": "function"
    },
    {
      "inputs": [
        {
          "internalType": "uint256",
          "name": "amount",
          "type": "uint256"
        },
        {
          "internalType": "uint256",
          "name": "price",
          "type": "uint256"
        }
      ],
      "name": "isCollateralSufficient",
      "outputs": [
        {
          "internalType": "bool",
          "name": "",
          "type": "bool"
        }
      ],
      "stateMutability": "view",
      "type": "function"
    },
    {
      "inputs": [
        {
          "internalType": "uint256",
          "name": "id",
          "type": "uint256"
        }
      ],
      "name": "calculateLoanInterest",
      "outputs": [],
      "stateMutability": "nonpayable",
      "type": "function"
    },
    {
      "inputs": [
        {
          "internalType": "uint256",
          "name": "amount",
          "type": "uint256"
        }
      ],
      "name": "deposit",
      "outputs": [
        {
          "internalType": "bool",
          "name": "",
          "type": "bool"
        }
      ],
      "stateMutability": "payable",
      "type": "function"
    },
    {
      "inputs": [
        {
          "internalType": "uint256",
          "name": "amount",
          "type": "uint256"
        },
        {
          "internalType": "uint256",
          "name": "duration",
          "type": "uint256"
        }
      ],
      "name": "borrow",
      "outputs": [
        {
          "internalType": "bool",
          "name": "",
          "type": "bool"
        }
      ],
      "stateMutability": "nonpayable",
      "type": "function"
    },
    {
      "inputs": [
        {
          "internalType": "uint256",
          "name": "id",
          "type": "uint256"
        }
      ],
      "name": "repay",
      "outputs": [
        {
          "internalType": "bool",
          "name": "",
          "type": "bool"
        }
      ],
      "stateMutability": "payable",
      "type": "function"
    },
    {
      "inputs": [],
      "name": "getBackCollateral",
      "outputs": [],
      "stateMutability": "nonpayable",
      "type": "function"
    },
    {
      "inputs": [
        {
          "internalType": "uint256",
          "name": "amount",
          "type": "uint256"
        }
      ],
      "name": "withdrawAmount",
      "outputs": [
        {
          "internalType": "bool",
          "name": "",
          "type": "bool"
        }
      ],
      "stateMutability": "nonpayable",
      "type": "function"
    },
    {
      "inputs": [],
      "name": "withdrawInterest",
      "outputs": [
        {
          "internalType": "bool",
          "name": "",
          "type": "bool"
        }
      ],
      "stateMutability": "nonpayable",
      "type": "function"
    }
  ],
  "bytecode": "0x60806040523480156200001157600080fd5b5062000032620000266200014360201b60201c565b6200014b60201b60201c565b738a753747a1fa494ec906ce90e9f37563a8af630e600b60006101000a81548173ffffffffffffffffffffffffffffffffffffffff021916908373ffffffffffffffffffffffffffffffffffffffff16021790555033600460006101000a81548173ffffffffffffffffffffffffffffffffffffffff021916908373ffffffffffffffffffffffffffffffffffffffff16021790555073ab0b2bed50a9e74b3728a8c8c118a579043a1bda600660006101000a81548173ffffffffffffffffffffffffffffffffffffffff021916908373ffffffffffffffffffffffffffffffffffffffff160217905550600260078190555060036008819055506001600981905550600e600a819055506200020f565b600033905090565b60008060009054906101000a900473ffffffffffffffffffffffffffffffffffffffff169050816000806101000a81548173ffffffffffffffffffffffffffffffffffffffff021916908373ffffffffffffffffffffffffffffffffffffffff1602179055508173ffffffffffffffffffffffffffffffffffffffff168173ffffffffffffffffffffffffffffffffffffffff167f8be0079c531659141344cd1fd0a4f28419497f9722a3daafe3b4186f6b6457e060405160405180910390a35050565b613252806200021f6000396000f3fe6080604052600436106101695760003560e01c80638da5cb5b116100d1578063d857d2391161008a578063ea2d39f611610064578063ea2d39f6146105f5578063eed75f6d1461060c578063f2fde38b1461064b578063f851a4401461067457610221565b8063d857d2391461055d578063df813b6b14610588578063e1ec3c68146105b157610221565b80638da5cb5b1461043d5780638e15f4731461046857806396365d4414610497578063b6b55f25146104c2578063bf5d50c4146104f2578063cda8ef981461053257610221565b8063371fd8e611610123578063371fd8e61461035e5780633f9c6ea81461038e57806348b15166146103a55780636e2f203b146103d0578063715018a6146103fb5780637c1b0d2e1461041257610221565b806263750c146102265780630562b9f71461025157806307b7c8891461028e5780630c3016f3146102b95780630ecbcdab146102f6578063215b0dc61461033357610221565b36610221576000600260003373ffffffffffffffffffffffffffffffffffffffff1673ffffffffffffffffffffffffffffffffffffffff16815260200190815260200160002090506101c834826001015461069f90919063ffffffff16565b81600101819055503373ffffffffffffffffffffffffffffffffffffffff167f714e0435d2ea0faa514ce7b66a98a00d2fabc02143213310adf29f3d43687aaa346040516102169190612612565b60405180910390a250005b600080fd5b34801561023257600080fd5b5061023b6106b5565b6040516102489190612648565b60405180910390f35b34801561025d57600080fd5b5061027860048036038101906102739190612694565b610930565b6040516102859190612648565b60405180910390f35b34801561029a57600080fd5b506102a3610c3f565b6040516102b0919061277f565b60405180910390f35b3480156102c557600080fd5b506102e060048036038101906102db91906127a1565b610cd7565b6040516102ed9190612648565b60405180910390f35b34801561030257600080fd5b5061031d600480360381019061031891906127a1565b610d6e565b60405161032a9190612648565b60405180910390f35b34801561033f57600080fd5b5061034861122b565b6040516103559190612612565b60405180910390f35b61037860048036038101906103739190612694565b611231565b6040516103859190612648565b60405180910390f35b34801561039a57600080fd5b506103a3611726565b005b3480156103b157600080fd5b506103ba6118d3565b6040516103c79190612612565b60405180910390f35b3480156103dc57600080fd5b506103e56118d9565b6040516103f29190612612565b60405180910390f35b34801561040757600080fd5b506104106118df565b005b34801561041e57600080fd5b50610427611967565b6040516104349190612612565b60405180910390f35b34801561044957600080fd5b5061045261196d565b60405161045f9190612822565b60405180910390f35b34801561047457600080fd5b5061047d611996565b60405161048e95949392919061287b565b60405180910390f35b3480156104a357600080fd5b506104ac611a6d565b6040516104b99190612612565b60405180910390f35b6104dc60048036038101906104d79190612694565b611a73565b6040516104e99190612648565b60405180910390f35b3480156104fe57600080fd5b50610519600480360381019061051491906128fa565b611cdc565b6040516105299493929190612927565b60405180910390f35b34801561053e57600080fd5b50610547611d0c565b6040516105549190612612565b60405180910390f35b34801561056957600080fd5b50610572611da4565b60405161057f91906129cb565b60405180910390f35b34801561059457600080fd5b506105af60048036038101906105aa9190612694565b611dca565b005b3480156105bd57600080fd5b506105d860048036038101906105d39190612694565b612045565b6040516105ec9897969594939291906129e6565b60405180910390f35b34801561060157600080fd5b5061060a6120ba565b005b34801561061857600080fd5b50610633600480360381019061062e91906128fa565b6123a3565b60405161064293929190612a64565b60405180910390f35b34801561065757600080fd5b50610672600480360381019061066d91906128fa565b6123cd565b005b34801561068057600080fd5b506106896124c5565b6040516106969190612822565b60405180910390f35b600081836106ad9190612aca565b905092915050565b600080600160003373ffffffffffffffffffffffffffffffffffffffff1673ffffffffffffffffffffffffffffffffffffffff1681526020019081526020016000206000015414158061074b57506000600160003373ffffffffffffffffffffffffffffffffffffffff1673ffffffffffffffffffffffffffffffffffffffff1681526020019081526020016000206001015414155b61078a576040517f08c379a000000000000000000000000000000000000000000000000000000000815260040161078190612b7d565b60405180910390fd5b6107926120ba565b6000600160003373ffffffffffffffffffffffffffffffffffffffff1673ffffffffffffffffffffffffffffffffffffffff1681526020019081526020016000206001015490506000600160003373ffffffffffffffffffffffffffffffffffffffff1673ffffffffffffffffffffffffffffffffffffffff16815260200190815260200160002060010181905550610836816005546124eb90919063ffffffff16565b6005819055503373ffffffffffffffffffffffffffffffffffffffff167f7084f5476618d8e60b11ef0d7d3f06914655adb8793e28ff7f018d4c76d505d5826040516108829190612612565b60405180910390a2600660009054906101000a900473ffffffffffffffffffffffffffffffffffffffff1673ffffffffffffffffffffffffffffffffffffffff1663a9059cbb33836040518363ffffffff1660e01b81526004016108e7929190612b9d565b6020604051808303816000875af1158015610906573d6000803e3d6000fd5b505050506040513d601f19601f8201168201806040525081019061092a9190612bf2565b91505090565b600080600160003373ffffffffffffffffffffffffffffffffffffffff1673ffffffffffffffffffffffffffffffffffffffff168152602001908152602001600020600001541415806109c657506000600160003373ffffffffffffffffffffffffffffffffffffffff1673ffffffffffffffffffffffffffffffffffffffff1681526020019081526020016000206001015414155b610a05576040517f08c379a00000000000000000000000000000000000000000000000000000000081526004016109fc90612b7d565b60405180910390fd5b81600160003373ffffffffffffffffffffffffffffffffffffffff1673ffffffffffffffffffffffffffffffffffffffff16815260200190815260200160002060000154811115610a8b576040517f08c379a0000000000000000000000000000000000000000000000000000000008152600401610a8290612c6b565b60405180910390fd5b610a936120ba565b610ae883600160003373ffffffffffffffffffffffffffffffffffffffff1673ffffffffffffffffffffffffffffffffffffffff168152602001908152602001600020600001546124eb90919063ffffffff16565b600160003373ffffffffffffffffffffffffffffffffffffffff1673ffffffffffffffffffffffffffffffffffffffff16815260200190815260200160002060000181905550610b43836005546124eb90919063ffffffff16565b6005819055503373ffffffffffffffffffffffffffffffffffffffff167f7084f5476618d8e60b11ef0d7d3f06914655adb8793e28ff7f018d4c76d505d584604051610b8f9190612612565b60405180910390a2600660009054906101000a900473ffffffffffffffffffffffffffffffffffffffff1673ffffffffffffffffffffffffffffffffffffffff1663a9059cbb33856040518363ffffffff1660e01b8152600401610bf4929190612b9d565b6020604051808303816000875af1158015610c13573d6000803e3d6000fd5b505050506040513d601f19601f82011682018060405250810190610c379190612bf2565b915050919050565b6060600260003373ffffffffffffffffffffffffffffffffffffffff1673ffffffffffffffffffffffffffffffffffffffff168152602001908152602001600020600401805480602002602001604051908101604052809291908181526020018280548015610ccd57602002820191906000526020600020905b815481526020019060010190808311610cb9575b5050505050905090565b6000610d006064610cf2607d8661250190919063ffffffff16565b61251790919063ffffffff16565b610d5583600260003373ffffffffffffffffffffffffffffffffffffffff1673ffffffffffffffffffffffffffffffffffffffff1681526020019081526020016000206001015461250190919063ffffffff16565b10610d635760019050610d68565b600090505b92915050565b60008260008111610db4576040517f08c379a0000000000000000000000000000000000000000000000000000000008152600401610dab90612cd7565b60405180910390fd5b6000610dbe611996565b5050509150506000819050610dd38682610cd7565b610e12576040517f08c379a0000000000000000000000000000000000000000000000000000000008152600401610e0990612d43565b60405180910390fd5b60405180610100016040528060095481526020013373ffffffffffffffffffffffffffffffffffffffff168152602001878152602001610e8183610e736064610e65607d8d61250190919063ffffffff16565b61251790919063ffffffff16565b61251790919063ffffffff16565b8152602001878152602001868152602001438152602001600015158152506003600060095481526020019081526020016000206000820151816000015560208201518160010160006101000a81548173ffffffffffffffffffffffffffffffffffffffff021916908373ffffffffffffffffffffffffffffffffffffffff16021790555060408201518160020155606082015181600301556080820151816004015560a0820151816005015560c0820151816006015560e08201518160070160006101000a81548160ff021916908315150217905550905050610faf86600260003373ffffffffffffffffffffffffffffffffffffffff1673ffffffffffffffffffffffffffffffffffffffff1681526020019081526020016000206000015461069f90919063ffffffff16565b600260003373ffffffffffffffffffffffffffffffffffffffff1673ffffffffffffffffffffffffffffffffffffffff1681526020019081526020016000206000018190555061104a86600260003373ffffffffffffffffffffffffffffffffffffffff1673ffffffffffffffffffffffffffffffffffffffff1681526020019081526020016000206003015461069f90919063ffffffff16565b600260003373ffffffffffffffffffffffffffffffffffffffff1673ffffffffffffffffffffffffffffffffffffffff16815260200190815260200160002060030181905550600260003373ffffffffffffffffffffffffffffffffffffffff1673ffffffffffffffffffffffffffffffffffffffff1681526020019081526020016000206004016009549080600181540180825580915050600190039060005260206000200160009091909190915055611110866005546124eb90919063ffffffff16565b60058190555061112c600160095461069f90919063ffffffff16565b6009819055503373ffffffffffffffffffffffffffffffffffffffff167fac59582e5396aca512fa873a2047e7f4c80f8f55d4a06cb34a78a0187f62719f876040516111789190612612565b60405180910390a2600660009054906101000a900473ffffffffffffffffffffffffffffffffffffffff1673ffffffffffffffffffffffffffffffffffffffff1663a9059cbb33886040518363ffffffff1660e01b81526004016111dd929190612b9d565b6020604051808303816000875af11580156111fc573d6000803e3d6000fd5b505050506040513d601f19601f820116820180604052508101906112209190612bf2565b935050505092915050565b60095481565b6000816003600082815260200190815260200160002060010160009054906101000a900473ffffffffffffffffffffffffffffffffffffffff1673ffffffffffffffffffffffffffffffffffffffff163373ffffffffffffffffffffffffffffffffffffffff16146112d8576040517f08c379a00000000000000000000000000000000000000000000000000000000081526004016112cf90612daf565b60405180910390fd5b611303600360008581526020019081526020016000206004015460055461069f90919063ffffffff16565b6005819055506113746003600085815260200190815260200160002060020154600260003373ffffffffffffffffffffffffffffffffffffffff1673ffffffffffffffffffffffffffffffffffffffff168152602001908152602001600020600001546124eb90919063ffffffff16565b600260003373ffffffffffffffffffffffffffffffffffffffff1673ffffffffffffffffffffffffffffffffffffffff168152602001908152602001600020600001819055506114256003600085815260200190815260200160002060040154600260003373ffffffffffffffffffffffffffffffffffffffff1673ffffffffffffffffffffffffffffffffffffffff168152602001908152602001600020600301546124eb90919063ffffffff16565b600260003373ffffffffffffffffffffffffffffffffffffffff1673ffffffffffffffffffffffffffffffffffffffff1681526020019081526020016000206003018190555060016003600085815260200190815260200160002060070160006101000a81548160ff0219169083151502179055506115056003600085815260200190815260200160002060030154600260003373ffffffffffffffffffffffffffffffffffffffff1673ffffffffffffffffffffffffffffffffffffffff168152602001908152602001600020600101546124eb90919063ffffffff16565b600260003373ffffffffffffffffffffffffffffffffffffffff1673ffffffffffffffffffffffffffffffffffffffff168152602001908152602001600020600101819055506115b66003600085815260200190815260200160002060030154600260003373ffffffffffffffffffffffffffffffffffffffff1673ffffffffffffffffffffffffffffffffffffffff1681526020019081526020016000206002015461069f90919063ffffffff16565b600260003373ffffffffffffffffffffffffffffffffffffffff1673ffffffffffffffffffffffffffffffffffffffff168152602001908152602001600020600201819055503373ffffffffffffffffffffffffffffffffffffffff167f0516911bcc3a0a7412a44601057c0a0a1ec628bde049a84284bc42886653448860036000868152602001908152602001600020600401546040516116589190612612565b60405180910390a26000600660009054906101000a900473ffffffffffffffffffffffffffffffffffffffff1673ffffffffffffffffffffffffffffffffffffffff166323b872dd333060036000898152602001908152602001600020600401546040518463ffffffff1660e01b81526004016116d793929190612dcf565b6020604051808303816000875af11580156116f6573d6000803e3d6000fd5b505050506040513d601f19601f8201168201806040525081019061171a9190612bf2565b90508092505050919050565b6000600260003373ffffffffffffffffffffffffffffffffffffffff1673ffffffffffffffffffffffffffffffffffffffff1681526020019081526020016000206002015414156117ac576040517f08c379a00000000000000000000000000000000000000000000000000000000081526004016117a390612e52565b60405180910390fd5b6000600260003373ffffffffffffffffffffffffffffffffffffffff1673ffffffffffffffffffffffffffffffffffffffff1681526020019081526020016000206002015490506000600260003373ffffffffffffffffffffffffffffffffffffffff1673ffffffffffffffffffffffffffffffffffffffff168152602001908152602001600020600201819055503373ffffffffffffffffffffffffffffffffffffffff167f3db642b80902afb8ef23a2aeab4800b4b3717feb180705cf0a1c273ccc591c97826040516118819190612612565b60405180910390a23373ffffffffffffffffffffffffffffffffffffffff166108fc829081150290604051600060405180830381858888f193505050501580156118cf573d6000803e3d6000fd5b5050565b600a5481565b60085481565b6118e761252d565b73ffffffffffffffffffffffffffffffffffffffff1661190561196d565b73ffffffffffffffffffffffffffffffffffffffff161461195b576040517f08c379a000000000000000000000000000000000000000000000000000000000815260040161195290612ebe565b60405180910390fd5b6119656000612535565b565b60075481565b60008060009054906101000a900473ffffffffffffffffffffffffffffffffffffffff16905090565b600080600080600080600080600080600b60009054906101000a900473ffffffffffffffffffffffffffffffffffffffff1673ffffffffffffffffffffffffffffffffffffffff1663feaf968c6040518163ffffffff1660e01b815260040160a060405180830381865afa158015611a12573d6000803e3d6000fd5b505050506040513d601f19601f82011682018060405250810190611a369190612f4b565b945094509450945094506305f5e10084611a509190612ff5565b935084848484849950995099509950995050505050509091929394565b60055481565b60008160008111611ab9576040517f08c379a0000000000000000000000000000000000000000000000000000000008152600401611ab090612cd7565b60405180910390fd5b6000600160003373ffffffffffffffffffffffffffffffffffffffff1673ffffffffffffffffffffffffffffffffffffffff16815260200190815260200160002090506000600160003373ffffffffffffffffffffffffffffffffffffffff1673ffffffffffffffffffffffffffffffffffffffff1681526020019081526020016000206000015414158015611b9257506000600160003373ffffffffffffffffffffffffffffffffffffffff1673ffffffffffffffffffffffffffffffffffffffff1681526020019081526020016000206001015414155b15611ba057611b9f6120ba565b5b611bb784826000015461069f90919063ffffffff16565b8160000181905550438160020181905550611bdd8460055461069f90919063ffffffff16565b6005819055503373ffffffffffffffffffffffffffffffffffffffff167f2da466a7b24304f47e87fa2e1e5a81b9831ce54fec19055ce277ca2f39ba42c485604051611c299190612612565b60405180910390a2600660009054906101000a900473ffffffffffffffffffffffffffffffffffffffff1673ffffffffffffffffffffffffffffffffffffffff166323b872dd3330876040518463ffffffff1660e01b8152600401611c9093929190612dcf565b6020604051808303816000875af1158015611caf573d6000803e3d6000fd5b505050506040513d601f19601f82011682018060405250810190611cd39190612bf2565b92505050919050565b60026020528060005260406000206000915090508060000154908060010154908060020154908060030154905084565b6000600460009054906101000a900473ffffffffffffffffffffffffffffffffffffffff1673ffffffffffffffffffffffffffffffffffffffff163373ffffffffffffffffffffffffffffffffffffffff1614611d9e576040517f08c379a0000000000000000000000000000000000000000000000000000000008152600401611d95906130ab565b60405180910390fd5b47905090565b600660009054906101000a900473ffffffffffffffffffffffffffffffffffffffff1681565b806003600082815260200190815260200160002060010160009054906101000a900473ffffffffffffffffffffffffffffffffffffffff1673ffffffffffffffffffffffffffffffffffffffff163373ffffffffffffffffffffffffffffffffffffffff1614611e6f576040517f08c379a0000000000000000000000000000000000000000000000000000000008152600401611e6690612daf565b60405180910390fd5b6000611eae600a54611ea06003600087815260200190815260200160002060060154436124eb90919063ffffffff16565b61250190919063ffffffff16565b90506000611edd6064611ecf62015180618ead61250190919063ffffffff16565b61251790919063ffffffff16565b90506000611f4382611f356064611f27600854611f1989600360008e81526020019081526020016000206002015461250190919063ffffffff16565b61250190919063ffffffff16565b61251790919063ffffffff16565b61251790919063ffffffff16565b9050611f6e81600360008881526020019081526020016000206004015461069f90919063ffffffff16565b6003600087815260200190815260200160002060040181905550436003600087815260200190815260200160002060060181905550611ff881600260003373ffffffffffffffffffffffffffffffffffffffff1673ffffffffffffffffffffffffffffffffffffffff1681526020019081526020016000206003015461069f90919063ffffffff16565b600260003373ffffffffffffffffffffffffffffffffffffffff1673ffffffffffffffffffffffffffffffffffffffff168152602001908152602001600020600301819055505050505050565b60036020528060005260406000206000915090508060000154908060010160009054906101000a900473ffffffffffffffffffffffffffffffffffffffff16908060020154908060030154908060040154908060050154908060060154908060070160009054906101000a900460ff16905088565b6000600160003373ffffffffffffffffffffffffffffffffffffffff1673ffffffffffffffffffffffffffffffffffffffff1681526020019081526020016000206000015414158061214f57506000600160003373ffffffffffffffffffffffffffffffffffffffff1673ffffffffffffffffffffffffffffffffffffffff1681526020019081526020016000206001015414155b61218e576040517f08c379a000000000000000000000000000000000000000000000000000000000815260040161218590612b7d565b60405180910390fd5b60006121f9600a546121eb600160003373ffffffffffffffffffffffffffffffffffffffff1673ffffffffffffffffffffffffffffffffffffffff16815260200190815260200160002060020154436124eb90919063ffffffff16565b61250190919063ffffffff16565b90506000612228606461221a62015180618ead61250190919063ffffffff16565b61251790919063ffffffff16565b905060006122ba826122ac606461229e60075461229089600160003373ffffffffffffffffffffffffffffffffffffffff1673ffffffffffffffffffffffffffffffffffffffff1681526020019081526020016000206000015461250190919063ffffffff16565b61250190919063ffffffff16565b61251790919063ffffffff16565b61251790919063ffffffff16565b905061231181600160003373ffffffffffffffffffffffffffffffffffffffff1673ffffffffffffffffffffffffffffffffffffffff1681526020019081526020016000206001015461069f90919063ffffffff16565b600160003373ffffffffffffffffffffffffffffffffffffffff1673ffffffffffffffffffffffffffffffffffffffff1681526020019081526020016000206001018190555043600160003373ffffffffffffffffffffffffffffffffffffffff1673ffffffffffffffffffffffffffffffffffffffff16815260200190815260200160002060020181905550505050565b60016020528060005260406000206000915090508060000154908060010154908060020154905083565b6123d561252d565b73ffffffffffffffffffffffffffffffffffffffff166123f361196d565b73ffffffffffffffffffffffffffffffffffffffff1614612449576040517f08c379a000000000000000000000000000000000000000000000000000000000815260040161244090612ebe565b60405180910390fd5b600073ffffffffffffffffffffffffffffffffffffffff168173ffffffffffffffffffffffffffffffffffffffff1614156124b9576040517f08c379a00000000000000000000000000000000000000000000000000000000081526004016124b09061313d565b60405180910390fd5b6124c281612535565b50565b600460009054906101000a900473ffffffffffffffffffffffffffffffffffffffff1681565b600081836124f9919061315d565b905092915050565b6000818361250f9190613191565b905092915050565b6000818361252591906131eb565b905092915050565b600033905090565b60008060009054906101000a900473ffffffffffffffffffffffffffffffffffffffff169050816000806101000a81548173ffffffffffffffffffffffffffffffffffffffff021916908373ffffffffffffffffffffffffffffffffffffffff1602179055508173ffffffffffffffffffffffffffffffffffffffff168173ffffffffffffffffffffffffffffffffffffffff167f8be0079c531659141344cd1fd0a4f28419497f9722a3daafe3b4186f6b6457e060405160405180910390a35050565b6000819050919050565b61260c816125f9565b82525050565b60006020820190506126276000830184612603565b92915050565b60008115159050919050565b6126428161262d565b82525050565b600060208201905061265d6000830184612639565b92915050565b600080fd5b612671816125f9565b811461267c57600080fd5b50565b60008135905061268e81612668565b92915050565b6000602082840312156126aa576126a9612663565b5b60006126b88482850161267f565b91505092915050565b600081519050919050565b600082825260208201905092915050565b6000819050602082019050919050565b6126f6816125f9565b82525050565b600061270883836126ed565b60208301905092915050565b6000602082019050919050565b600061272c826126c1565b61273681856126cc565b9350612741836126dd565b8060005b8381101561277257815161275988826126fc565b975061276483612714565b925050600181019050612745565b5085935050505092915050565b600060208201905081810360008301526127998184612721565b905092915050565b600080604083850312156127b8576127b7612663565b5b60006127c68582860161267f565b92505060206127d78582860161267f565b9150509250929050565b600073ffffffffffffffffffffffffffffffffffffffff82169050919050565b600061280c826127e1565b9050919050565b61281c81612801565b82525050565b60006020820190506128376000830184612813565b92915050565b600069ffffffffffffffffffff82169050919050565b61285c8161283d565b82525050565b6000819050919050565b61287581612862565b82525050565b600060a0820190506128906000830188612853565b61289d602083018761286c565b6128aa6040830186612603565b6128b76060830185612603565b6128c46080830184612853565b9695505050505050565b6128d781612801565b81146128e257600080fd5b50565b6000813590506128f4816128ce565b92915050565b6000602082840312156129105761290f612663565b5b600061291e848285016128e5565b91505092915050565b600060808201905061293c6000830187612603565b6129496020830186612603565b6129566040830185612603565b6129636060830184612603565b95945050505050565b6000819050919050565b600061299161298c612987846127e1565b61296c565b6127e1565b9050919050565b60006129a382612976565b9050919050565b60006129b582612998565b9050919050565b6129c5816129aa565b82525050565b60006020820190506129e060008301846129bc565b92915050565b6000610100820190506129fc600083018b612603565b612a09602083018a612813565b612a166040830189612603565b612a236060830188612603565b612a306080830187612603565b612a3d60a0830186612603565b612a4a60c0830185612603565b612a5760e0830184612639565b9998505050505050505050565b6000606082019050612a796000830186612603565b612a866020830185612603565b612a936040830184612603565b949350505050565b7f4e487b7100000000000000000000000000000000000000000000000000000000600052601160045260246000fd5b6000612ad5826125f9565b9150612ae0836125f9565b9250827fffffffffffffffffffffffffffffffffffffffffffffffffffffffffffffffff03821115612b1557612b14612a9b565b5b828201905092915050565b600082825260208201905092915050565b7f4465706f7369746f7220646f6573206e6f742065786973740000000000000000600082015250565b6000612b67601883612b20565b9150612b7282612b31565b602082019050919050565b60006020820190508181036000830152612b9681612b5a565b9050919050565b6000604082019050612bb26000830185612813565b612bbf6020830184612603565b9392505050565b612bcf8161262d565b8114612bda57600080fd5b50565b600081519050612bec81612bc6565b92915050565b600060208284031215612c0857612c07612663565b5b6000612c1684828501612bdd565b91505092915050565b7f4e6f7420656e6f756768206465706f7369742e00000000000000000000000000600082015250565b6000612c55601383612b20565b9150612c6082612c1f565b602082019050919050565b60006020820190508181036000830152612c8481612c48565b9050919050565b7f526571756573742068696768657220616d6f756e740000000000000000000000600082015250565b6000612cc1601583612b20565b9150612ccc82612c8b565b602082019050919050565b60006020820190508181036000830152612cf081612cb4565b9050919050565b7f436f6c6c61746572616c206973206e6f742073756666696369656e7400000000600082015250565b6000612d2d601c83612b20565b9150612d3882612cf7565b602082019050919050565b60006020820190508181036000830152612d5c81612d20565b9050919050565b7f4c6f616e20646f6573206e6f7420657869737473000000000000000000000000600082015250565b6000612d99601483612b20565b9150612da482612d63565b602082019050919050565b60006020820190508181036000830152612dc881612d8c565b9050919050565b6000606082019050612de46000830186612813565b612df16020830185612813565b612dfe6040830184612603565b949350505050565b7f4e6f20756e6c6f61636b656420636f6c6c61746572616c000000000000000000600082015250565b6000612e3c601783612b20565b9150612e4782612e06565b602082019050919050565b60006020820190508181036000830152612e6b81612e2f565b9050919050565b7f4f776e61626c653a2063616c6c6572206973206e6f7420746865206f776e6572600082015250565b6000612ea8602083612b20565b9150612eb382612e72565b602082019050919050565b60006020820190508181036000830152612ed781612e9b565b9050919050565b612ee78161283d565b8114612ef257600080fd5b50565b600081519050612f0481612ede565b92915050565b612f1381612862565b8114612f1e57600080fd5b50565b600081519050612f3081612f0a565b92915050565b600081519050612f4581612668565b92915050565b600080600080600060a08688031215612f6757612f66612663565b5b6000612f7588828901612ef5565b9550506020612f8688828901612f21565b9450506040612f9788828901612f36565b9350506060612fa888828901612f36565b9250506080612fb988828901612ef5565b9150509295509295909350565b7f4e487b7100000000000000000000000000000000000000000000000000000000600052601260045260246000fd5b600061300082612862565b915061300b83612862565b92508261301b5761301a612fc6565b5b600160000383147f80000000000000000000000000000000000000000000000000000000000000008314161561305457613053612a9b565b5b828205905092915050565b7f596f7520617265206e6f74207468652041646d696e0000000000000000000000600082015250565b6000613095601583612b20565b91506130a08261305f565b602082019050919050565b600060208201905081810360008301526130c481613088565b9050919050565b7f4f776e61626c653a206e6577206f776e657220697320746865207a65726f206160008201527f6464726573730000000000000000000000000000000000000000000000000000602082015250565b6000613127602683612b20565b9150613132826130cb565b604082019050919050565b600060208201905081810360008301526131568161311a565b9050919050565b6000613168826125f9565b9150613173836125f9565b92508282101561318657613185612a9b565b5b828203905092915050565b600061319c826125f9565b91506131a7836125f9565b9250817fffffffffffffffffffffffffffffffffffffffffffffffffffffffffffffffff04831182151516156131e0576131df612a9b565b5b828202905092915050565b60006131f6826125f9565b9150613201836125f9565b92508261321157613210612fc6565b5b82820490509291505056fea2646970667358221220091d20cb964bc1bcc1942b3f6d6084aba560552c24a8573496f8069e9f8b1da564736f6c634300080a0033",
  "immutableReferences": {},
  "source": "// SPDX-License-Identifier: GPL-3.0\npragma solidity ^0.8.0;\n\nimport \"../node_modules/@openzeppelin/contracts/utils/math/SafeMath.sol\";\nimport \"../node_modules/@openzeppelin/contracts/access/Ownable.sol\";\nimport \"../node_modules/@chainlink/contracts/src/v0.8/interfaces/AggregatorV3Interface.sol\";\n\nimport \"./RakToken.sol\";\n\ncontract Pool is Ownable {\n    /* Safe guarding the contract from integer\n    overflow and underflow vulnerabilities.\n    */\n    using SafeMath for uint256;\n\n    /* New type in the form of a struct to define\n    the characteristics of a Depositor.\n    */\n    struct Depositor {\n        uint256 totalDepositedAmount;\n        uint256 totalInterestEarned;\n        uint256 blockNumber;\n    }\n\n    /* New type in the form of a struct to define\n    the characteristics of a Borrower.\n    */\n    struct Borrower {\n        uint256 totalLoanedAmount;\n        uint256 totalLockedCollateralAmount;\n        uint256 totalUnlockedCollateralAmount;\n        uint256 totalRepayAmount;\n        uint256[] loanIDs;\n    }\n\n    mapping(address => Depositor) public depositors; //depositors list\n    mapping(address => Borrower) public borrowers; //borrowers list\n\n    /* New type in the form of a struct to define\n    the characteristics of a loan.\n    */\n    struct Loan {\n        uint256 loanID;\n        address borrower;\n        uint256 loanedAmount;\n        uint256 collateralAmount;\n        uint256 repayAmount;\n        uint256 loanDuration;\n        uint256 blockNumber;\n        bool repayed;\n    }\n\n    mapping(uint256 => Loan) public loans; //loan list\n\n    address public admin; //owner of the contract\n    uint256 public poolBalance; //available Rak tokens in the pool\n    RakToken public rakToken; //Rak token contract reference\n\n    uint256 public depositorInterestRate; //fixed interest rate for depositors\n    uint256 public borrowerInterestRate; //fixed interest rate for borrowers slighty higher\n\n    /*\n    Instantiated in the constructor and incremented\n    after each loan creation to prevent a loan\n    having a ID collision.\n    */\n    uint256 public loanID;\n\n    uint256 public blockTime; // block time of the network\n\n    AggregatorV3Interface internal priceFeed; //oracle pricefeed interface\n\n    /*\n    To check if the msg.sender is owner/admin or not\n    */\n    modifier ownerOnly() {\n        require(msg.sender == admin, \"You are not admin\");\n        _;\n    }\n\n    /*\n    Check if any user made any deposit\n    */\n    modifier depositorOnly() {\n        require(\n            depositors[msg.sender].totalDepositedAmount != 0 ||\n                depositors[msg.sender].totalInterestEarned != 0,\n            \"Depositor does not exist\"\n        );\n        _;\n    }\n\n    /*\n    Check if a user borrowed any amount\n    */\n    modifier borrowerOnly(uint256 id) {\n        require(msg.sender == loans[id].borrower, \"Loan does not exists\");\n        _;\n    }\n\n    /*\n    Check if borrower has Unloacked Collateral Amount\n    */\n    modifier hasUnlockedCollateral() {\n        require(\n            borrowers[msg.sender].totalUnlockedCollateralAmount != 0,\n            \"No unloacked collateral\"\n        );\n        _;\n    }\n\n    /*\n    To check if the amount is valid\n    */\n    modifier validateAmount(uint256 amount) {\n        require(amount > 0, \"Request higher amount\");\n        _;\n    }\n\n    /*\n    To check if pool has enough balance\n    */\n    modifier validatePoolBalance(uint256 amount) {\n        require(amount <= poolBalance, \"Not enough poolBalance.\");\n        _;\n    }\n\n    /*\n    To check if amount to withdraw is less than total deposit + total interest\n    */\n    modifier validateWithdrawAmount(uint256 amount) {\n        require(\n            amount <= depositors[msg.sender].totalDepositedAmount,\n            \"Not enough deposit.\"\n        );\n        _;\n    }\n\n    /*\n    Allows the view side to monitor &\n    react to certain functions\n    that get fired as well as log argument passed.\n    */\n    event Deposited(address indexed depositor, uint256 amount);\n    event Borrowed(address indexed borrower, uint256 amount);\n    event Repaid(address indexed borrower, uint256 amount);\n    event Withdrawn(address indexed borrower, uint256 amount);\n    event CollateralReceived(address indexed borrower, uint256 amount);\n    event CollateralReturned(address indexed borrower, uint256 amount);\n\n    /**\n     * @notice Constructor, which is a function that executes\n     * once (on deployment) sets depositID and loanID\n     * to 1 which will be the ID of the first loan\n     * created and deposit respectively also set the\n     * deposit interest rate to 2%, borrower\n     * interest rate to 3% and AggregatorV3Interface\n     * is added to get latest ETH to Rak rate\n     */\n    constructor() {\n        priceFeed = AggregatorV3Interface(\n            0x8A753747A1Fa494EC906cE90E9f37563A8AF630e\n        );\n        admin = msg.sender;\n        rakToken = RakToken(0xab0B2bed50a9E74b3728A8c8c118A579043A1BDA);\n        depositorInterestRate = 2;\n        borrowerInterestRate = 3;\n        loanID = 1;\n        blockTime = 14; // 14 seconds for Ethereum main net\n    }\n\n    /**\n     * @notice receives collateral in the contract\n     */\n    receive() external payable {\n        //creating a new borrower in the borrowers list with totalLockedCollateral amount only\n        Borrower storage borrower = borrowers[msg.sender];\n        borrower.totalLockedCollateralAmount = borrower\n            .totalLockedCollateralAmount\n            .add(msg.value);\n        emit CollateralReceived(msg.sender, msg.value);\n    }\n\n    /**\n     * @notice Get the collateral balance\n     * @return Total Collateral balance available in contract (in ETH)\n     */\n    function getTotalCollateralDeposited() external view returns (uint256) {\n        //Validate if user is admin\n        require(msg.sender == admin, \"You are not the Admin\");\n        return address(this).balance;\n    }\n\n    /**\n     * @notice Get the latest price of eth to USD\n     * @return Total Collateral balance available in contract (in ETH)\n     */\n    function getLatestPrice()\n        public\n        view\n        returns (\n            uint80,\n            int256,\n            uint256,\n            uint256,\n            uint80\n        )\n    {\n        (\n            uint80 roundID,\n            int256 price,\n            uint256 startedAt,\n            uint256 timeStamp,\n            uint80 answeredInRound\n        ) = priceFeed.latestRoundData();\n        // for ETH / USD price is scaled up by 10 ** 8\n        price = price / 1e8;\n        return (roundID, price, startedAt, timeStamp, answeredInRound);\n    }\n\n    /**\n     * @notice Get the Loan Ids of a user if they have borrowed in the past\n     * @return array of loanIDs\n     */\n    function getLoanIDs() external view returns (uint256[] memory) {\n        return borrowers[msg.sender].loanIDs;\n    }\n\n    /**\n     * @notice calculate and update depositor's interest\n     */\n    function calculateDepositorInterest() public depositorOnly {\n        // duration in seconds from deposit block to this block\n        uint256 duration = block\n            .number\n            .sub(depositors[msg.sender].blockNumber)\n            .mul(blockTime);\n\n        // calculating interest by (principle * APR/100 * duration in seconds) / seconds in a year\n        uint256 secondsInYear = uint256(36525).mul(86400).div(100);\n        uint256 interest = (depositors[msg.sender].totalDepositedAmount)\n            .mul(duration)\n            .mul(depositorInterestRate)\n            .div(100)\n            .div(secondsInYear);\n        depositors[msg.sender].totalInterestEarned = depositors[msg.sender]\n            .totalInterestEarned\n            .add(interest);\n\n        depositors[msg.sender].blockNumber = block.number;\n    }\n\n    /**\n     * @notice checks if collateral >= 125% of the value of Rak tokens requested\n     * @param amount the amount of Rak token you want to borrow\n     * @param price the equivalent number of Rak tokens for 1 Ether\n     */\n    function isCollateralSufficient(uint256 amount, uint256 price)\n        public\n        view\n        returns (bool)\n    {\n        if (\n            borrowers[msg.sender].totalLockedCollateralAmount.mul(price) >=\n            amount.mul(125).div(100)\n        ) {\n            return true;\n        }\n        return false;\n    }\n\n    /**\n     * @notice calculate and update a specific loan interest and borrowers's repay amount\n     * @param id the Loan Id of the Loan\n     */\n    function calculateLoanInterest(uint256 id) external borrowerOnly(id) {\n        // duration in seconds from loan block to this block\n        uint256 duration = block.number.sub(loans[id].blockNumber).mul(\n            blockTime\n        );\n\n        // calculating interest by (principle * APR/100 * duration in seconds) / seconds in a year\n        uint256 secondsInYear = uint256(36525).mul(86400).div(100);\n        uint256 interest = (loans[id].loanedAmount)\n            .mul(duration)\n            .mul(borrowerInterestRate)\n            .div(100)\n            .div(secondsInYear);\n        loans[id].repayAmount = loans[id].repayAmount.add(interest);\n\n        loans[id].blockNumber = block.number;\n        borrowers[msg.sender].totalRepayAmount = borrowers[msg.sender]\n            .totalRepayAmount\n            .add(interest);\n    }\n\n    /**\n     * @notice Make a deposit for the amount you specified\n     * @param amount the amount of Rak token you want to deposit\n     * @return true if excecuted successfully\n     */\n    function deposit(uint256 amount)\n        external\n        payable\n        validateAmount(amount)\n        returns (bool)\n    {\n        // putting the depositor data into the depositors list\n        Depositor storage depositor = depositors[msg.sender];\n\n        // In case already a depositor\n        if (\n            depositors[msg.sender].totalDepositedAmount != 0 &&\n            depositors[msg.sender].totalInterestEarned != 0\n        ) {\n            calculateDepositorInterest();\n        }\n\n        depositor.totalDepositedAmount = depositor.totalDepositedAmount.add(\n            amount\n        );\n\n        depositor.blockNumber = block.number;\n\n        poolBalance = poolBalance.add(amount);\n\n        emit Deposited(msg.sender, amount);\n\n        //transfer Rak token to the contract\n        return rakToken.transferFrom(msg.sender, address(this), amount);\n    }\n\n    /**\n     * @notice borrows a specific amount of Rak tokens for specific duration\n     * @param amount the amount you want to borrow\n     * @param duration for the number of days you want to borrow\n     * @return true if excecuted successfully\n     */\n    function borrow(uint256 amount, uint256 duration)\n        external\n        validateAmount(amount)\n        returns (bool)\n    {\n        //to get the current ETH price uncomment these 2 lines\n        (, int256 latestPrice, , , ) = getLatestPrice();\n        uint256 price = uint256(latestPrice);\n        //and comment this line\n        // uint256 price = 3000;\n\n        // checking if collateral >= 125% of the value of Rak tokens requested\n        require(\n            isCollateralSufficient(amount, price),\n            \"Collateral is not sufficient\"\n        );\n\n        //putting loan data in loans list\n        loans[loanID] = Loan({\n            loanID: loanID,\n            borrower: msg.sender,\n            loanedAmount: amount,\n            repayAmount: amount,\n            collateralAmount: amount.mul(125).div(100).div(price),\n            loanDuration: duration,\n            blockNumber: block.number,\n            repayed: false\n        });\n\n        //updating the borrowers data into borrowers list\n        borrowers[msg.sender].totalLoanedAmount = borrowers[msg.sender]\n            .totalLoanedAmount\n            .add(amount);\n        borrowers[msg.sender].totalRepayAmount = borrowers[msg.sender]\n            .totalRepayAmount\n            .add(amount);\n        borrowers[msg.sender].loanIDs.push(loanID);\n\n        poolBalance = poolBalance.sub(amount);\n        loanID = loanID.add(1);\n\n        emit Borrowed(msg.sender, amount);\n\n        //transfers the Rak tokens from this contract (pool) to the borrower's account\n        return rakToken.transfer(msg.sender, amount);\n    }\n\n    /**\n     * @notice repay the specific loan in Rak token and gets back the collateral (ETH)\n     * @param id the Loan Id of the Loan\n     * @return true if excecuted successfully\n     */\n    function repay(uint256 id)\n        external\n        payable\n        borrowerOnly(id)\n        returns (bool)\n    {\n        poolBalance = poolBalance.add(loans[id].repayAmount);\n\n        //updating the borrower's data in the borrowers list\n        borrowers[msg.sender].totalLoanedAmount = borrowers[msg.sender]\n            .totalLoanedAmount\n            .sub(loans[id].loanedAmount);\n        borrowers[msg.sender].totalRepayAmount = borrowers[msg.sender]\n            .totalRepayAmount\n            .sub(loans[id].repayAmount);\n\n        //updating the loans data in loans list\n        loans[id].repayed = true;\n\n        //updating the borrower's collateral data in borrowers list\n        borrowers[msg.sender].totalLockedCollateralAmount = borrowers[\n            msg.sender\n        ].totalLockedCollateralAmount.sub(loans[id].collateralAmount);\n\n        borrowers[msg.sender].totalUnlockedCollateralAmount = borrowers[\n            msg.sender\n        ].totalUnlockedCollateralAmount.add(loans[id].collateralAmount);\n\n        emit Repaid(msg.sender, loans[id].repayAmount);\n\n        //transfers Rak tokens from borrower's account to the contract (pool)\n        bool success = rakToken.transferFrom(\n            msg.sender,\n            address(this),\n            loans[id].repayAmount\n        );\n\n        return success;\n    }\n\n    /**\n     * @notice sends back unloaked collateral in ETH to borrower's account\n     */\n    function getBackCollateral() external hasUnlockedCollateral {\n        uint256 amount = borrowers[msg.sender].totalUnlockedCollateralAmount;\n        borrowers[msg.sender].totalUnlockedCollateralAmount = 0;\n\n        emit CollateralReturned(msg.sender, amount);\n\n        //transfers the collateral amount in ETH from this contract to the borrower's account\n        payable(msg.sender).transfer(amount);\n    }\n\n    /**\n     * @notice for a specific deposit withdraws Rak tokens to the depositor's account\n     * @param amount the amount you want to borrow\n     * @return true if excuted successfully\n     */\n    function withdrawAmount(uint256 amount)\n        external\n        depositorOnly\n        validateWithdrawAmount(amount)\n        returns (bool)\n    {\n        calculateDepositorInterest();\n\n        depositors[msg.sender].totalDepositedAmount = depositors[msg.sender]\n            .totalDepositedAmount\n            .sub(amount);\n\n        poolBalance = poolBalance.sub(amount);\n\n        emit Withdrawn(msg.sender, amount);\n\n        //transfers Rak tokens from contract(pool) to the depositor's account\n        return rakToken.transfer(msg.sender, amount);\n    }\n\n    /**\n     * @notice for a specific accrude interest withdraws Rak tokens to the depositor's account\n     * @return true if excuted successfully\n     */\n    function withdrawInterest() external depositorOnly returns (bool) {\n        calculateDepositorInterest();\n\n        uint256 interest = depositors[msg.sender].totalInterestEarned;\n\n        depositors[msg.sender].totalInterestEarned = 0;\n\n        poolBalance = poolBalance.sub(interest);\n\n        emit Withdrawn(msg.sender, interest);\n\n        //transfers Rak tokens from contract(pool) to the depositor's account\n        return rakToken.transfer(msg.sender, interest);\n    }\n}\n",
  "sourcePath": "/home/sunny/Projects/lendnborrow/lendandborrow/contracts/Pool.sol",
  "compiler": {
    "name": "solc",
    "version": "0.8.10+commit.fc410830.Emscripten.clang"
  },
  "schemaVersion": "3.4.5",
  "updatedAt": "2022-03-11T05:23:17.548Z",
  "devdoc": {
    "kind": "dev",
    "methods": {
      "borrow(uint256,uint256)": {
        "params": {
          "amount": "the amount you want to borrow",
          "duration": "for the number of days you want to borrow"
        },
        "returns": {
          "_0": "true if excecuted successfully"
        }
      },
      "calculateLoanInterest(uint256)": {
        "params": {
          "id": "the Loan Id of the Loan"
        }
      },
      "deposit(uint256)": {
        "params": {
          "amount": "the amount of Rak token you want to deposit"
        },
        "returns": {
          "_0": "true if excecuted successfully"
        }
      },
      "getLatestPrice()": {
        "returns": {
          "_0": "Total Collateral balance available in contract (in ETH)"
        }
      },
      "getLoanIDs()": {
        "returns": {
          "_0": "array of loanIDs"
        }
      },
      "getTotalCollateralDeposited()": {
        "returns": {
          "_0": "Total Collateral balance available in contract (in ETH)"
        }
      },
      "isCollateralSufficient(uint256,uint256)": {
        "params": {
          "amount": "the amount of Rak token you want to borrow",
          "price": "the equivalent number of Rak tokens for 1 Ether"
        }
      },
      "owner()": {
        "details": "Returns the address of the current owner."
      },
      "renounceOwnership()": {
        "details": "Leaves the contract without owner. It will not be possible to call `onlyOwner` functions anymore. Can only be called by the current owner. NOTE: Renouncing ownership will leave the contract without an owner, thereby removing any functionality that is only available to the owner."
      },
      "repay(uint256)": {
        "params": {
          "id": "the Loan Id of the Loan"
        },
        "returns": {
          "_0": "true if excecuted successfully"
        }
      },
      "transferOwnership(address)": {
        "details": "Transfers ownership of the contract to a new account (`newOwner`). Can only be called by the current owner."
      },
      "withdrawAmount(uint256)": {
        "params": {
          "amount": "the amount you want to borrow"
        },
        "returns": {
          "_0": "true if excuted successfully"
        }
      },
      "withdrawInterest()": {
        "returns": {
          "_0": "true if excuted successfully"
        }
      }
    },
    "version": 1
  },
  "userdoc": {
    "kind": "user",
    "methods": {
      "borrow(uint256,uint256)": {
        "notice": "borrows a specific amount of Rak tokens for specific duration"
      },
      "calculateDepositorInterest()": {
        "notice": "calculate and update depositor's interest"
      },
      "calculateLoanInterest(uint256)": {
        "notice": "calculate and update a specific loan interest and borrowers's repay amount"
      },
      "constructor": {
        "notice": "Constructor, which is a function that executes once (on deployment) sets depositID and loanID to 1 which will be the ID of the first loan created and deposit respectively also set the deposit interest rate to 2%, borrower interest rate to 3% and AggregatorV3Interface is added to get latest ETH to Rak rate"
      },
      "deposit(uint256)": {
        "notice": "Make a deposit for the amount you specified"
      },
      "getBackCollateral()": {
        "notice": "sends back unloaked collateral in ETH to borrower's account"
      },
      "getLatestPrice()": {
        "notice": "Get the latest price of eth to USD"
      },
      "getLoanIDs()": {
        "notice": "Get the Loan Ids of a user if they have borrowed in the past"
      },
      "getTotalCollateralDeposited()": {
        "notice": "Get the collateral balance"
      },
      "isCollateralSufficient(uint256,uint256)": {
        "notice": "checks if collateral >= 125% of the value of Rak tokens requested"
      },
      "repay(uint256)": {
        "notice": "repay the specific loan in Rak token and gets back the collateral (ETH)"
      },
      "withdrawAmount(uint256)": {
        "notice": "for a specific deposit withdraws Rak tokens to the depositor's account"
      },
      "withdrawInterest()": {
        "notice": "for a specific accrude interest withdraws Rak tokens to the depositor's account"
      }
    },
    "version": 1
  }
}