{
  "contractName": "RakTokenFactory",
  "abi": [
    {
      "anonymous": false,
      "inputs": [
        {
          "indexed": true,
          "internalType": "address",
          "name": "previousOwner",
          "type": "address"
        },
        {
          "indexed": true,
          "internalType": "address",
          "name": "newOwner",
          "type": "address"
        }
      ],
      "name": "OwnershipTransferred",
      "type": "event"
    },
    {
      "inputs": [],
      "name": "owner",
      "outputs": [
        {
          "internalType": "address",
          "name": "",
          "type": "address"
        }
      ],
      "stateMutability": "view",
      "type": "function"
    },
    {
      "inputs": [],
      "name": "rakToken",
      "outputs": [
        {
          "internalType": "contract RakToken",
          "name": "",
          "type": "address"
        }
      ],
      "stateMutability": "view",
      "type": "function"
    },
    {
      "inputs": [],
      "name": "renounceOwnership",
      "outputs": [],
      "stateMutability": "nonpayable",
      "type": "function"
    },
    {
      "inputs": [
        {
          "internalType": "address",
          "name": "newOwner",
          "type": "address"
        }
      ],
      "name": "transferOwnership",
      "outputs": [],
      "stateMutability": "nonpayable",
      "type": "function"
    },
    {
      "inputs": [
        {
          "internalType": "uint256",
          "name": "amount",
          "type": "uint256"
        }
      ],
      "name": "buyRaktoken",
      "outputs": [
        {
          "internalType": "bool",
          "name": "success",
          "type": "bool"
        }
      ],
      "stateMutability": "payable",
      "type": "function"
    }
  ],
  "bytecode": "0x60806040526305f5e10060405161001590610176565b61001f91906101d2565b604051809103906000f08015801561003b573d6000803e3d6000fd5b50600160006101000a81548173ffffffffffffffffffffffffffffffffffffffff021916908373ffffffffffffffffffffffffffffffffffffffff16021790555034801561008857600080fd5b506100a561009a6100aa60201b60201c565b6100b260201b60201c565b6101ed565b600033905090565b60008060009054906101000a900473ffffffffffffffffffffffffffffffffffffffff169050816000806101000a81548173ffffffffffffffffffffffffffffffffffffffff021916908373ffffffffffffffffffffffffffffffffffffffff1602179055508173ffffffffffffffffffffffffffffffffffffffff168173ffffffffffffffffffffffffffffffffffffffff167f8be0079c531659141344cd1fd0a4f28419497f9722a3daafe3b4186f6b6457e060405160405180910390a35050565b61218080610a6083390190565b6000819050919050565b6000819050919050565b6000819050919050565b60006101bc6101b76101b284610183565b610197565b61018d565b9050919050565b6101cc816101a1565b82525050565b60006020820190506101e760008301846101c3565b92915050565b610864806101fc6000396000f3fe60806040526004361061004a5760003560e01c8063715018a61461004f5780638da5cb5b14610066578063d857d23914610091578063e75cb9ae146100bc578063f2fde38b146100ec575b600080fd5b34801561005b57600080fd5b50610064610115565b005b34801561007257600080fd5b5061007b61019d565b6040516100889190610519565b60405180910390f35b34801561009d57600080fd5b506100a66101c6565b6040516100b39190610593565b60405180910390f35b6100d660048036038101906100d191906105e9565b6101ec565b6040516100e39190610631565b60405180910390f35b3480156100f857600080fd5b50610113600480360381019061010e9190610678565b610314565b005b61011d61040c565b73ffffffffffffffffffffffffffffffffffffffff1661013b61019d565b73ffffffffffffffffffffffffffffffffffffffff1614610191576040517f08c379a000000000000000000000000000000000000000000000000000000000815260040161018890610702565b60405180910390fd5b61019b6000610414565b565b60008060009054906101000a900473ffffffffffffffffffffffffffffffffffffffff16905090565b600160009054906101000a900473ffffffffffffffffffffffffffffffffffffffff1681565b60006101f661040c565b73ffffffffffffffffffffffffffffffffffffffff1661021461019d565b73ffffffffffffffffffffffffffffffffffffffff161461026a576040517f08c379a000000000000000000000000000000000000000000000000000000000815260040161026190610702565b60405180910390fd5b600160009054906101000a900473ffffffffffffffffffffffffffffffffffffffff1673ffffffffffffffffffffffffffffffffffffffff166343d7cce633846040518363ffffffff1660e01b81526004016102c7929190610731565b6020604051808303816000875af11580156102e6573d6000803e3d6000fd5b505050506040513d601f19601f8201168201806040525081019061030a919061076f565b5060019050919050565b61031c61040c565b73ffffffffffffffffffffffffffffffffffffffff1661033a61019d565b73ffffffffffffffffffffffffffffffffffffffff1614610390576040517f08c379a000000000000000000000000000000000000000000000000000000000815260040161038790610702565b60405180910390fd5b600073ffffffffffffffffffffffffffffffffffffffff168173ffffffffffffffffffffffffffffffffffffffff161415610400576040517f08c379a00000000000000000000000000000000000000000000000000000000081526004016103f79061080e565b60405180910390fd5b61040981610414565b50565b600033905090565b60008060009054906101000a900473ffffffffffffffffffffffffffffffffffffffff169050816000806101000a81548173ffffffffffffffffffffffffffffffffffffffff021916908373ffffffffffffffffffffffffffffffffffffffff1602179055508173ffffffffffffffffffffffffffffffffffffffff168173ffffffffffffffffffffffffffffffffffffffff167f8be0079c531659141344cd1fd0a4f28419497f9722a3daafe3b4186f6b6457e060405160405180910390a35050565b600073ffffffffffffffffffffffffffffffffffffffff82169050919050565b6000610503826104d8565b9050919050565b610513816104f8565b82525050565b600060208201905061052e600083018461050a565b92915050565b6000819050919050565b600061055961055461054f846104d8565b610534565b6104d8565b9050919050565b600061056b8261053e565b9050919050565b600061057d82610560565b9050919050565b61058d81610572565b82525050565b60006020820190506105a86000830184610584565b92915050565b600080fd5b6000819050919050565b6105c6816105b3565b81146105d157600080fd5b50565b6000813590506105e3816105bd565b92915050565b6000602082840312156105ff576105fe6105ae565b5b600061060d848285016105d4565b91505092915050565b60008115159050919050565b61062b81610616565b82525050565b60006020820190506106466000830184610622565b92915050565b610655816104f8565b811461066057600080fd5b50565b6000813590506106728161064c565b92915050565b60006020828403121561068e5761068d6105ae565b5b600061069c84828501610663565b91505092915050565b600082825260208201905092915050565b7f4f776e61626c653a2063616c6c6572206973206e6f7420746865206f776e6572600082015250565b60006106ec6020836106a5565b91506106f7826106b6565b602082019050919050565b6000602082019050818103600083015261071b816106df565b9050919050565b61072b816105b3565b82525050565b6000604082019050610746600083018561050a565b6107536020830184610722565b9392505050565b600081519050610769816105bd565b92915050565b600060208284031215610785576107846105ae565b5b60006107938482850161075a565b91505092915050565b7f4f776e61626c653a206e6577206f776e657220697320746865207a65726f206160008201527f6464726573730000000000000000000000000000000000000000000000000000602082015250565b60006107f86026836106a5565b91506108038261079c565b604082019050919050565b60006020820190508181036000830152610827816107eb565b905091905056fea2646970667358221220ed027205cfb78fada5c78b43c26ce7d4756575f566616d89b5441ef9ba4b4a7864736f6c634300080a003360806040523480156200001157600080fd5b506040516200218038038062002180833981810160405281019062000037919062000490565b6040518060400160405280600981526020017f52414b20546f6b656e00000000000000000000000000000000000000000000008152506040518060400160405280600381526020017f52414b00000000000000000000000000000000000000000000000000000000008152508160039080519060200190620000bb929190620003a0565b508060049080519060200190620000d4929190620003a0565b505050620000f7620000eb6200013760201b60201c565b6200013f60201b60201c565b60006200011b678ac7230489e80000836200020560201b62000ac61790919060201c565b90506200012f33826200021d60201b60201c565b5050620006c5565b600033905090565b6000600560009054906101000a900473ffffffffffffffffffffffffffffffffffffffff16905081600560006101000a81548173ffffffffffffffffffffffffffffffffffffffff021916908373ffffffffffffffffffffffffffffffffffffffff1602179055508173ffffffffffffffffffffffffffffffffffffffff168173ffffffffffffffffffffffffffffffffffffffff167f8be0079c531659141344cd1fd0a4f28419497f9722a3daafe3b4186f6b6457e060405160405180910390a35050565b60008183620002159190620004f1565b905092915050565b600073ffffffffffffffffffffffffffffffffffffffff168273ffffffffffffffffffffffffffffffffffffffff16141562000290576040517f08c379a00000000000000000000000000000000000000000000000000000000081526004016200028790620005b3565b60405180910390fd5b620002a4600083836200039660201b60201c565b8060026000828254620002b89190620005d5565b92505081905550806000808473ffffffffffffffffffffffffffffffffffffffff1673ffffffffffffffffffffffffffffffffffffffff16815260200190815260200160002060008282546200030f9190620005d5565b925050819055508173ffffffffffffffffffffffffffffffffffffffff16600073ffffffffffffffffffffffffffffffffffffffff167fddf252ad1be2c89b69c2b068fc378daa952ba7f163c4a11628f55a4df523b3ef8360405162000376919062000643565b60405180910390a362000392600083836200039b60201b60201c565b5050565b505050565b505050565b828054620003ae906200068f565b90600052602060002090601f016020900481019282620003d257600085556200041e565b82601f10620003ed57805160ff19168380011785556200041e565b828001600101855582156200041e579182015b828111156200041d57825182559160200191906001019062000400565b5b5090506200042d919062000431565b5090565b5b808211156200044c57600081600090555060010162000432565b5090565b600080fd5b6000819050919050565b6200046a8162000455565b81146200047657600080fd5b50565b6000815190506200048a816200045f565b92915050565b600060208284031215620004a957620004a862000450565b5b6000620004b98482850162000479565b91505092915050565b7f4e487b7100000000000000000000000000000000000000000000000000000000600052601160045260246000fd5b6000620004fe8262000455565b91506200050b8362000455565b9250817fffffffffffffffffffffffffffffffffffffffffffffffffffffffffffffffff0483118215151615620005475762000546620004c2565b5b828202905092915050565b600082825260208201905092915050565b7f45524332303a206d696e7420746f20746865207a65726f206164647265737300600082015250565b60006200059b601f8362000552565b9150620005a88262000563565b602082019050919050565b60006020820190508181036000830152620005ce816200058c565b9050919050565b6000620005e28262000455565b9150620005ef8362000455565b9250827fffffffffffffffffffffffffffffffffffffffffffffffffffffffffffffffff03821115620006275762000626620004c2565b5b828201905092915050565b6200063d8162000455565b82525050565b60006020820190506200065a600083018462000632565b92915050565b7f4e487b7100000000000000000000000000000000000000000000000000000000600052602260045260246000fd5b60006002820490506001821680620006a857607f821691505b60208210811415620006bf57620006be62000660565b5b50919050565b611aab80620006d56000396000f3fe608060405234801561001057600080fd5b50600436106100f55760003560e01c806370a0823111610097578063a457c2d711610066578063a457c2d71461028a578063a9059cbb146102ba578063dd62ed3e146102ea578063f2fde38b1461031a576100f5565b806370a0823114610214578063715018a6146102445780638da5cb5b1461024e57806395d89b411461026c576100f5565b806323b872dd116100d357806323b872dd14610166578063313ce5671461019657806339509351146101b457806343d7cce6146101e4576100f5565b806306fdde03146100fa578063095ea7b31461011857806318160ddd14610148575b600080fd5b610102610336565b60405161010f9190611177565b60405180910390f35b610132600480360381019061012d9190611232565b6103c8565b60405161013f919061128d565b60405180910390f35b6101506103eb565b60405161015d91906112b7565b60405180910390f35b610180600480360381019061017b91906112d2565b6103f5565b60405161018d919061128d565b60405180910390f35b61019e6104ec565b6040516101ab9190611341565b60405180910390f35b6101ce60048036038101906101c99190611232565b6104f5565b6040516101db919061128d565b60405180910390f35b6101fe60048036038101906101f99190611232565b61059f565b60405161020b91906112b7565b60405180910390f35b61022e6004803603810190610229919061135c565b6105dc565b60405161023b91906112b7565b60405180910390f35b61024c610624565b005b6102566106ac565b6040516102639190611398565b60405180910390f35b6102746106d6565b6040516102819190611177565b60405180910390f35b6102a4600480360381019061029f9190611232565b610768565b6040516102b1919061128d565b60405180910390f35b6102d460048036038101906102cf9190611232565b610852565b6040516102e1919061128d565b60405180910390f35b61030460048036038101906102ff91906113b3565b610947565b60405161031191906112b7565b60405180910390f35b610334600480360381019061032f919061135c565b6109ce565b005b60606003805461034590611422565b80601f016020809104026020016040519081016040528092919081815260200182805461037190611422565b80156103be5780601f10610393576101008083540402835291602001916103be565b820191906000526020600020905b8154815290600101906020018083116103a157829003601f168201915b5050505050905090565b6000806103d3610adc565b90506103e0818585610ae4565b600191505092915050565b6000600254905090565b600082600073ffffffffffffffffffffffffffffffffffffffff168173ffffffffffffffffffffffffffffffffffffffff161415610468576040517f08c379a000000000000000000000000000000000000000000000000000000000815260040161045f906114a0565b60405180910390fd5b3073ffffffffffffffffffffffffffffffffffffffff168173ffffffffffffffffffffffffffffffffffffffff1614156104d7576040517f08c379a00000000000000000000000000000000000000000000000000000000081526004016104ce906114a0565b60405180910390fd5b6104e2858585610caf565b9150509392505050565b60006012905090565b600080610500610adc565b9050610594818585600160008673ffffffffffffffffffffffffffffffffffffffff1673ffffffffffffffffffffffffffffffffffffffff16815260200190815260200160002060008973ffffffffffffffffffffffffffffffffffffffff1673ffffffffffffffffffffffffffffffffffffffff1681526020019081526020016000205461058f91906114ef565b610ae4565b600191505092915050565b6000806105bd678ac7230489e8000084610ac690919063ffffffff16565b90506105c98482610852565b506105d3336105dc565b91505092915050565b60008060008373ffffffffffffffffffffffffffffffffffffffff1673ffffffffffffffffffffffffffffffffffffffff168152602001908152602001600020549050919050565b61062c610adc565b73ffffffffffffffffffffffffffffffffffffffff1661064a6106ac565b73ffffffffffffffffffffffffffffffffffffffff16146106a0576040517f08c379a000000000000000000000000000000000000000000000000000000000815260040161069790611591565b60405180910390fd5b6106aa6000610cde565b565b6000600560009054906101000a900473ffffffffffffffffffffffffffffffffffffffff16905090565b6060600480546106e590611422565b80601f016020809104026020016040519081016040528092919081815260200182805461071190611422565b801561075e5780601f106107335761010080835404028352916020019161075e565b820191906000526020600020905b81548152906001019060200180831161074157829003601f168201915b5050505050905090565b600080610773610adc565b90506000600160008373ffffffffffffffffffffffffffffffffffffffff1673ffffffffffffffffffffffffffffffffffffffff16815260200190815260200160002060008673ffffffffffffffffffffffffffffffffffffffff1673ffffffffffffffffffffffffffffffffffffffff16815260200190815260200160002054905083811015610839576040517f08c379a000000000000000000000000000000000000000000000000000000000815260040161083090611623565b60405180910390fd5b6108468286868403610ae4565b60019250505092915050565b600082600073ffffffffffffffffffffffffffffffffffffffff168173ffffffffffffffffffffffffffffffffffffffff1614156108c5576040517f08c379a00000000000000000000000000000000000000000000000000000000081526004016108bc906114a0565b60405180910390fd5b3073ffffffffffffffffffffffffffffffffffffffff168173ffffffffffffffffffffffffffffffffffffffff161415610934576040517f08c379a000000000000000000000000000000000000000000000000000000000815260040161092b906114a0565b60405180910390fd5b61093e8484610da4565b91505092915050565b6000600160008473ffffffffffffffffffffffffffffffffffffffff1673ffffffffffffffffffffffffffffffffffffffff16815260200190815260200160002060008373ffffffffffffffffffffffffffffffffffffffff1673ffffffffffffffffffffffffffffffffffffffff16815260200190815260200160002054905092915050565b6109d6610adc565b73ffffffffffffffffffffffffffffffffffffffff166109f46106ac565b73ffffffffffffffffffffffffffffffffffffffff1614610a4a576040517f08c379a0000000000000000000000000000000000000000000000000000000008152600401610a4190611591565b60405180910390fd5b600073ffffffffffffffffffffffffffffffffffffffff168173ffffffffffffffffffffffffffffffffffffffff161415610aba576040517f08c379a0000000000000000000000000000000000000000000000000000000008152600401610ab1906116b5565b60405180910390fd5b610ac381610cde565b50565b60008183610ad491906116d5565b905092915050565b600033905090565b600073ffffffffffffffffffffffffffffffffffffffff168373ffffffffffffffffffffffffffffffffffffffff161415610b54576040517f08c379a0000000000000000000000000000000000000000000000000000000008152600401610b4b906117a1565b60405180910390fd5b600073ffffffffffffffffffffffffffffffffffffffff168273ffffffffffffffffffffffffffffffffffffffff161415610bc4576040517f08c379a0000000000000000000000000000000000000000000000000000000008152600401610bbb90611833565b60405180910390fd5b80600160008573ffffffffffffffffffffffffffffffffffffffff1673ffffffffffffffffffffffffffffffffffffffff16815260200190815260200160002060008473ffffffffffffffffffffffffffffffffffffffff1673ffffffffffffffffffffffffffffffffffffffff168152602001908152602001600020819055508173ffffffffffffffffffffffffffffffffffffffff168373ffffffffffffffffffffffffffffffffffffffff167f8c5be1e5ebec7d5bd14f71427d1e84f3dd0314c0f7b2291e5b200ac8c7c3b92583604051610ca291906112b7565b60405180910390a3505050565b600080610cba610adc565b9050610cc7858285610dc7565b610cd2858585610e53565b60019150509392505050565b6000600560009054906101000a900473ffffffffffffffffffffffffffffffffffffffff16905081600560006101000a81548173ffffffffffffffffffffffffffffffffffffffff021916908373ffffffffffffffffffffffffffffffffffffffff1602179055508173ffffffffffffffffffffffffffffffffffffffff168173ffffffffffffffffffffffffffffffffffffffff167f8be0079c531659141344cd1fd0a4f28419497f9722a3daafe3b4186f6b6457e060405160405180910390a35050565b600080610daf610adc565b9050610dbc818585610e53565b600191505092915050565b6000610dd38484610947565b90507fffffffffffffffffffffffffffffffffffffffffffffffffffffffffffffffff8114610e4d5781811015610e3f576040517f08c379a0000000000000000000000000000000000000000000000000000000008152600401610e369061189f565b60405180910390fd5b610e4c8484848403610ae4565b5b50505050565b600073ffffffffffffffffffffffffffffffffffffffff168373ffffffffffffffffffffffffffffffffffffffff161415610ec3576040517f08c379a0000000000000000000000000000000000000000000000000000000008152600401610eba90611931565b60405180910390fd5b600073ffffffffffffffffffffffffffffffffffffffff168273ffffffffffffffffffffffffffffffffffffffff161415610f33576040517f08c379a0000000000000000000000000000000000000000000000000000000008152600401610f2a906119c3565b60405180910390fd5b610f3e8383836110d4565b60008060008573ffffffffffffffffffffffffffffffffffffffff1673ffffffffffffffffffffffffffffffffffffffff16815260200190815260200160002054905081811015610fc4576040517f08c379a0000000000000000000000000000000000000000000000000000000008152600401610fbb90611a55565b60405180910390fd5b8181036000808673ffffffffffffffffffffffffffffffffffffffff1673ffffffffffffffffffffffffffffffffffffffff16815260200190815260200160002081905550816000808573ffffffffffffffffffffffffffffffffffffffff1673ffffffffffffffffffffffffffffffffffffffff168152602001908152602001600020600082825461105791906114ef565b925050819055508273ffffffffffffffffffffffffffffffffffffffff168473ffffffffffffffffffffffffffffffffffffffff167fddf252ad1be2c89b69c2b068fc378daa952ba7f163c4a11628f55a4df523b3ef846040516110bb91906112b7565b60405180910390a36110ce8484846110d9565b50505050565b505050565b505050565b600081519050919050565b600082825260208201905092915050565b60005b838110156111185780820151818401526020810190506110fd565b83811115611127576000848401525b50505050565b6000601f19601f8301169050919050565b6000611149826110de565b61115381856110e9565b93506111638185602086016110fa565b61116c8161112d565b840191505092915050565b60006020820190508181036000830152611191818461113e565b905092915050565b600080fd5b600073ffffffffffffffffffffffffffffffffffffffff82169050919050565b60006111c98261119e565b9050919050565b6111d9816111be565b81146111e457600080fd5b50565b6000813590506111f6816111d0565b92915050565b6000819050919050565b61120f816111fc565b811461121a57600080fd5b50565b60008135905061122c81611206565b92915050565b6000806040838503121561124957611248611199565b5b6000611257858286016111e7565b92505060206112688582860161121d565b9150509250929050565b60008115159050919050565b61128781611272565b82525050565b60006020820190506112a2600083018461127e565b92915050565b6112b1816111fc565b82525050565b60006020820190506112cc60008301846112a8565b92915050565b6000806000606084860312156112eb576112ea611199565b5b60006112f9868287016111e7565b935050602061130a868287016111e7565b925050604061131b8682870161121d565b9150509250925092565b600060ff82169050919050565b61133b81611325565b82525050565b60006020820190506113566000830184611332565b92915050565b60006020828403121561137257611371611199565b5b6000611380848285016111e7565b91505092915050565b611392816111be565b82525050565b60006020820190506113ad6000830184611389565b92915050565b600080604083850312156113ca576113c9611199565b5b60006113d8858286016111e7565b92505060206113e9858286016111e7565b9150509250929050565b7f4e487b7100000000000000000000000000000000000000000000000000000000600052602260045260246000fd5b6000600282049050600182168061143a57607f821691505b6020821081141561144e5761144d6113f3565b5b50919050565b7f4e6f7420612076616c6964206164647265737300000000000000000000000000600082015250565b600061148a6013836110e9565b915061149582611454565b602082019050919050565b600060208201905081810360008301526114b98161147d565b9050919050565b7f4e487b7100000000000000000000000000000000000000000000000000000000600052601160045260246000fd5b60006114fa826111fc565b9150611505836111fc565b9250827fffffffffffffffffffffffffffffffffffffffffffffffffffffffffffffffff0382111561153a576115396114c0565b5b828201905092915050565b7f4f776e61626c653a2063616c6c6572206973206e6f7420746865206f776e6572600082015250565b600061157b6020836110e9565b915061158682611545565b602082019050919050565b600060208201905081810360008301526115aa8161156e565b9050919050565b7f45524332303a2064656372656173656420616c6c6f77616e63652062656c6f7760008201527f207a65726f000000000000000000000000000000000000000000000000000000602082015250565b600061160d6025836110e9565b9150611618826115b1565b604082019050919050565b6000602082019050818103600083015261163c81611600565b9050919050565b7f4f776e61626c653a206e6577206f776e657220697320746865207a65726f206160008201527f6464726573730000000000000000000000000000000000000000000000000000602082015250565b600061169f6026836110e9565b91506116aa82611643565b604082019050919050565b600060208201905081810360008301526116ce81611692565b9050919050565b60006116e0826111fc565b91506116eb836111fc565b9250817fffffffffffffffffffffffffffffffffffffffffffffffffffffffffffffffff0483118215151615611724576117236114c0565b5b828202905092915050565b7f45524332303a20617070726f76652066726f6d20746865207a65726f2061646460008201527f7265737300000000000000000000000000000000000000000000000000000000602082015250565b600061178b6024836110e9565b91506117968261172f565b604082019050919050565b600060208201905081810360008301526117ba8161177e565b9050919050565b7f45524332303a20617070726f766520746f20746865207a65726f20616464726560008201527f7373000000000000000000000000000000000000000000000000000000000000602082015250565b600061181d6022836110e9565b9150611828826117c1565b604082019050919050565b6000602082019050818103600083015261184c81611810565b9050919050565b7f45524332303a20696e73756666696369656e7420616c6c6f77616e6365000000600082015250565b6000611889601d836110e9565b915061189482611853565b602082019050919050565b600060208201905081810360008301526118b88161187c565b9050919050565b7f45524332303a207472616e736665722066726f6d20746865207a65726f20616460008201527f6472657373000000000000000000000000000000000000000000000000000000602082015250565b600061191b6025836110e9565b9150611926826118bf565b604082019050919050565b6000602082019050818103600083015261194a8161190e565b9050919050565b7f45524332303a207472616e7366657220746f20746865207a65726f206164647260008201527f6573730000000000000000000000000000000000000000000000000000000000602082015250565b60006119ad6023836110e9565b91506119b882611951565b604082019050919050565b600060208201905081810360008301526119dc816119a0565b9050919050565b7f45524332303a207472616e7366657220616d6f756e742065786365656473206260008201527f616c616e63650000000000000000000000000000000000000000000000000000602082015250565b6000611a3f6026836110e9565b9150611a4a826119e3565b604082019050919050565b60006020820190508181036000830152611a6e81611a32565b905091905056fea26469706673582212203580a56d305bb6acfc0c26bceaaf3909afd4200e47caae3e78a3708bfb6040b164736f6c634300080a0033",
  "immutableReferences": {},
  "source": "// SPDX-License-Identifier: GPL-3.0\npragma solidity ^0.8.0;\n\nimport \"../node_modules/@openzeppelin/contracts/access/Ownable.sol\";\n\nimport \"./RakToken.sol\";\n\n//This contract deploys Rak token  contract\ncontract RakTokenFactory is Ownable {\n    //this variable stores the RakToken contract address\n    RakToken public rakToken = new RakToken(100000000);\n\n    /**\n     * @notice user can get Rak token\n     * @param amount number of token user wants\n     * @return success true if success\n     */\n    function buyRaktoken(uint256 amount)\n        public\n        payable\n        onlyOwner\n        returns (bool success)\n    {\n        rakToken.getToken(msg.sender, amount);\n        return true;\n    }\n}\n",
  "sourcePath": "/home/sunny/Projects/lendnborrow/lendandborrow/contracts/RakTokenFactory.sol",
  "compiler": {
    "name": "solc",
    "version": "0.8.10+commit.fc410830.Emscripten.clang"
  },
  "schemaVersion": "3.4.5",
  "updatedAt": "2022-03-11T05:23:17.589Z",
  "devdoc": {
    "kind": "dev",
    "methods": {
      "buyRaktoken(uint256)": {
        "params": {
          "amount": "number of token user wants"
        },
        "returns": {
          "success": "true if success"
        }
      },
      "owner()": {
        "details": "Returns the address of the current owner."
      },
      "renounceOwnership()": {
        "details": "Leaves the contract without owner. It will not be possible to call `onlyOwner` functions anymore. Can only be called by the current owner. NOTE: Renouncing ownership will leave the contract without an owner, thereby removing any functionality that is only available to the owner."
      },
      "transferOwnership(address)": {
        "details": "Transfers ownership of the contract to a new account (`newOwner`). Can only be called by the current owner."
      }
    },
    "version": 1
  },
  "userdoc": {
    "kind": "user",
    "methods": {
      "buyRaktoken(uint256)": {
        "notice": "user can get Rak token"
      }
    },
    "version": 1
  }
}